{
  "_format": "hh-sol-artifact-1",
  "contractName": "DomainRegistry",
  "sourceName": "contracts/DomainRegistry.sol",
  "abi": [
    {
      "inputs": [],
      "name": "AmountMustBePositive",
      "type": "error"
    },
    {
      "inputs": [],
      "name": "DomainAlreadyRegistered",
      "type": "error"
    },
    {
      "inputs": [],
      "name": "DomainNotRegistered",
      "type": "error"
    },
    {
      "inputs": [],
      "name": "FailedToSendEther",
      "type": "error"
    },
    {
      "inputs": [],
      "name": "IncorrectRegistrationFee",
      "type": "error"
    },
    {
      "inputs": [],
      "name": "InsufficientEthBalance",
      "type": "error"
    },
    {
      "inputs": [],
      "name": "InsufficientUsdtBalance",
      "type": "error"
    },
    {
      "inputs": [],
      "name": "InvalidInitialization",
      "type": "error"
    },
    {
      "inputs": [],
      "name": "InvalidInput",
      "type": "error"
    },
    {
      "inputs": [],
      "name": "InvalidPriceData",
      "type": "error"
    },
    {
      "inputs": [],
      "name": "NotInitializing",
      "type": "error"
    },
    {
      "inputs": [],
      "name": "OnlyController",
      "type": "error"
    },
    {
      "inputs": [],
      "name": "OnlyOwner",
      "type": "error"
    },
    {
      "inputs": [],
      "name": "USDTransferFailed",
      "type": "error"
    },
    {
      "anonymous": false,
      "inputs": [
        {
          "indexed": false,
          "internalType": "string",
          "name": "domain",
          "type": "string"
        },
        {
          "indexed": true,
          "internalType": "address",
          "name": "controller",
          "type": "address"
        }
      ],
      "name": "DomainRegistered",
      "type": "event"
    },
    {
      "anonymous": false,
      "inputs": [
        {
          "indexed": false,
          "internalType": "uint64",
          "name": "version",
          "type": "uint64"
        }
      ],
      "name": "Initialized",
      "type": "event"
    },
    {
      "anonymous": false,
      "inputs": [
        {
          "indexed": false,
          "internalType": "uint256",
          "name": "newFeeUSD",
          "type": "uint256"
        }
      ],
      "name": "RegistrationFeeChanged",
      "type": "event"
    },
    {
      "anonymous": false,
      "inputs": [
        {
          "indexed": false,
          "internalType": "string",
          "name": "domain",
          "type": "string"
        },
        {
          "indexed": true,
          "internalType": "address",
          "name": "beneficiary",
          "type": "address"
        },
        {
          "indexed": false,
          "internalType": "uint256",
          "name": "reward",
          "type": "uint256"
        }
      ],
      "name": "RewardIssued",
      "type": "event"
    },
    {
      "anonymous": false,
      "inputs": [
        {
          "indexed": true,
          "internalType": "address",
          "name": "controller",
          "type": "address"
        },
        {
          "indexed": false,
          "internalType": "address",
          "name": "token",
          "type": "address"
        },
        {
          "indexed": false,
          "internalType": "uint256",
          "name": "amount",
          "type": "uint256"
        }
      ],
      "name": "RewardsWithdrawn",
      "type": "event"
    },
    {
      "inputs": [
        {
          "internalType": "address",
          "name": "",
          "type": "address"
        }
      ],
      "name": "balancesETH",
      "outputs": [
        {
          "internalType": "uint256",
          "name": "",
          "type": "uint256"
        }
      ],
      "stateMutability": "view",
      "type": "function"
    },
    {
      "inputs": [
        {
          "internalType": "address",
          "name": "",
          "type": "address"
        }
      ],
      "name": "balancesUSDT",
      "outputs": [
        {
          "internalType": "uint256",
          "name": "",
          "type": "uint256"
        }
      ],
      "stateMutability": "view",
      "type": "function"
    },
    {
      "inputs": [
        {
          "internalType": "uint256",
          "name": "newFeeUSD",
          "type": "uint256"
        }
      ],
      "name": "changeRegistrationFee",
      "outputs": [],
      "stateMutability": "nonpayable",
      "type": "function"
    },
    {
      "inputs": [
        {
          "internalType": "address",
          "name": "controller",
          "type": "address"
        }
      ],
      "name": "getControllerBalances",
      "outputs": [
        {
          "internalType": "uint256",
          "name": "balanceETH",
          "type": "uint256"
        },
        {
          "internalType": "uint256",
          "name": "balanceUSDT",
          "type": "uint256"
        }
      ],
      "stateMutability": "view",
      "type": "function"
    },
    {
      "inputs": [
        {
          "internalType": "string",
          "name": "domain",
          "type": "string"
        }
      ],
      "name": "getDomainController",
      "outputs": [
        {
          "internalType": "address",
          "name": "",
          "type": "address"
        }
      ],
      "stateMutability": "view",
      "type": "function"
    },
    {
      "inputs": [
        {
          "internalType": "string",
          "name": "domain",
          "type": "string"
        }
      ],
      "name": "getDomainReward",
      "outputs": [
        {
          "internalType": "uint256",
          "name": "",
          "type": "uint256"
        }
      ],
      "stateMutability": "view",
      "type": "function"
    },
    {
      "inputs": [
        {
          "internalType": "uint256",
          "name": "usdAmount",
          "type": "uint256"
        }
      ],
      "name": "getRequiredWei",
      "outputs": [
        {
          "internalType": "uint256",
          "name": "",
          "type": "uint256"
        }
      ],
      "stateMutability": "view",
      "type": "function"
    },
    {
      "inputs": [
        {
          "internalType": "address",
          "name": "_priceFeed",
          "type": "address"
        },
        {
          "internalType": "address",
          "name": "_usdtToken",
          "type": "address"
        }
      ],
      "name": "initialize",
      "outputs": [],
      "stateMutability": "nonpayable",
      "type": "function"
    },
    {
      "inputs": [],
      "name": "owner",
      "outputs": [
        {
          "internalType": "address",
          "name": "",
          "type": "address"
        }
      ],
      "stateMutability": "view",
      "type": "function"
    },
    {
      "inputs": [
        {
          "internalType": "string",
          "name": "domain",
          "type": "string"
        },
        {
          "internalType": "string",
          "name": "parentDomain",
          "type": "string"
        }
      ],
      "name": "registerDomain",
      "outputs": [],
      "stateMutability": "payable",
      "type": "function"
    },
    {
      "inputs": [],
      "name": "registrationFeeUSD",
      "outputs": [
        {
          "internalType": "uint256",
          "name": "",
          "type": "uint256"
        }
      ],
      "stateMutability": "view",
      "type": "function"
    },
    {
      "inputs": [
        {
          "internalType": "string",
          "name": "domain",
          "type": "string"
        },
        {
          "internalType": "uint256",
          "name": "rewardUSD",
          "type": "uint256"
        }
      ],
      "name": "setDomainReward",
      "outputs": [],
      "stateMutability": "nonpayable",
      "type": "function"
    },
    {
      "inputs": [
        {
          "internalType": "address",
          "name": "token",
          "type": "address"
        },
        {
          "internalType": "uint256",
          "name": "amount",
          "type": "uint256"
        }
      ],
      "name": "withdrawFunds",
      "outputs": [],
      "stateMutability": "nonpayable",
      "type": "function"
    },
    {
      "inputs": [
        {
          "internalType": "address",
          "name": "token",
          "type": "address"
        },
        {
          "internalType": "uint256",
          "name": "amount",
          "type": "uint256"
        }
      ],
      "name": "withdrawRewards",
      "outputs": [],
      "stateMutability": "nonpayable",
      "type": "function"
    },
    {
      "stateMutability": "payable",
      "type": "receive"
    }
  ],
  "bytecode": "0x608060405234801561001057600080fd5b506123fb806100206000396000f3fe6080604052600436106100e15760003560e01c8063969808151161007f578063c107532911610059578063c1075329146102e0578063d670e92614610309578063d6ef7af014610334578063dfabdece1461035d576100e8565b80639698081514610229578063b189088914610266578063b237d818146102a3576100e8565b806350050769116100bb578063500507691461017c57806356b89be4146101a557806387a3d555146101e25780638da5cb5b146101fe576100e8565b80630ed80dab146100ed57806313c6f10914610116578063485cc95514610153576100e8565b366100e857005b600080fd5b3480156100f957600080fd5b50610114600480360381019061010f9190611919565b61039b565b005b34801561012257600080fd5b5061013d60048036038101906101389190611979565b61046a565b60405161014a91906119d5565b60405180910390f35b34801561015f57600080fd5b5061017a60048036038101906101759190611a4e565b610495565b005b34801561018857600080fd5b506101a3600480360381019061019e9190611a8e565b6106e6565b005b3480156101b157600080fd5b506101cc60048036038101906101c79190611abb565b6107ac565b6040516101d991906119d5565b60405180910390f35b6101fc60048036038101906101f79190611ae8565b6107c4565b005b34801561020a57600080fd5b50610213610fb1565b6040516102209190611b78565b60405180910390f35b34801561023557600080fd5b50610250600480360381019061024b9190611979565b610fd5565b60405161025d9190611b78565b60405180910390f35b34801561027257600080fd5b5061028d60048036038101906102889190611a8e565b61108b565b60405161029a91906119d5565b60405180910390f35b3480156102af57600080fd5b506102ca60048036038101906102c59190611abb565b6111b7565b6040516102d791906119d5565b60405180910390f35b3480156102ec57600080fd5b5061030760048036038101906103029190611b93565b6111cf565b005b34801561031557600080fd5b5061031e6113f6565b60405161032b91906119d5565b60405180910390f35b34801561034057600080fd5b5061035b60048036038101906103569190611b93565b6113fc565b005b34801561036957600080fd5b50610384600480360381019061037f9190611abb565b6117c0565b604051610392929190611bd3565b60405180910390f35b3373ffffffffffffffffffffffffffffffffffffffff16600284846040516103c4929190611c3b565b908152602001604051809103902060009054906101000a900473ffffffffffffffffffffffffffffffffffffffff1673ffffffffffffffffffffffffffffffffffffffff1614610440576040517f5990781300000000000000000000000000000000000000000000000000000000815260040160405180910390fd5b8060038484604051610453929190611c3b565b908152602001604051809103902081905550505050565b60006003838360405161047e929190611c3b565b908152602001604051809103902054905092915050565b600061049f61184c565b905060008160000160089054906101000a900460ff1615905060008260000160009054906101000a900467ffffffffffffffff1690506000808267ffffffffffffffff161480156104ed5750825b9050600060018367ffffffffffffffff16148015610522575060003073ffffffffffffffffffffffffffffffffffffffff163b145b905081158015610530575080155b15610567576040517ff92ee8a900000000000000000000000000000000000000000000000000000000815260040160405180910390fd5b60018560000160006101000a81548167ffffffffffffffff021916908367ffffffffffffffff16021790555083156105b75760018560000160086101000a81548160ff0219169083151502179055505b336000806101000a81548173ffffffffffffffffffffffffffffffffffffffff021916908373ffffffffffffffffffffffffffffffffffffffff16021790555086600760006101000a81548173ffffffffffffffffffffffffffffffffffffffff021916908373ffffffffffffffffffffffffffffffffffffffff16021790555085600860006101000a81548173ffffffffffffffffffffffffffffffffffffffff021916908373ffffffffffffffffffffffffffffffffffffffff160217905550603260018190555083156106dd5760008560000160086101000a81548160ff0219169083151502179055507fc7f505b2f371ae2175ee4913f4499e1f2633a7b5936321eed1cdaeb6115181d260016040516106d49190611cad565b60405180910390a15b50505050505050565b60008054906101000a900473ffffffffffffffffffffffffffffffffffffffff1673ffffffffffffffffffffffffffffffffffffffff163373ffffffffffffffffffffffffffffffffffffffff161461076b576040517f5fc483c500000000000000000000000000000000000000000000000000000000815260040160405180910390fd5b806001819055507ffd29c2cd5dc77cf2bad34e3b80ec2592a7c16d32869ccaee99f95af250db954a816040516107a191906119d5565b60405180910390a150565b60066020528060005260406000206000915090505481565b60006107d160015461108b565b905060008084849050146108bf57600073ffffffffffffffffffffffffffffffffffffffff1660028585604051610809929190611c3b565b908152602001604051809103902060009054906101000a900473ffffffffffffffffffffffffffffffffffffffff1673ffffffffffffffffffffffffffffffffffffffff1603610885576040517f2f80c2cf00000000000000000000000000000000000000000000000000000000815260040160405180910390fd5b60038484604051610897929190611c3b565b90815260200160405180910390205490506108b18161108b565b826108bc9190611cf7565b91505b6000341115610a3c5781341015610902576040517f2c17032b00000000000000000000000000000000000000000000000000000000815260040160405180910390fd5b6000811115610a375760006109168261108b565b90506002858560405161092a929190611c3b565b908152602001604051809103902060009054906101000a900473ffffffffffffffffffffffffffffffffffffffff1673ffffffffffffffffffffffffffffffffffffffff166108fc829081150290604051600060405180830381858888f1935050505015801561099e573d6000803e3d6000fd5b508060056000600288886040516109b6929190611c3b565b908152602001604051809103902060009054906101000a900473ffffffffffffffffffffffffffffffffffffffff1673ffffffffffffffffffffffffffffffffffffffff1673ffffffffffffffffffffffffffffffffffffffff1681526020019081526020016000206000828254610a2e9190611cf7565b92505081905550505b610c9c565b600081600154610a4c9190611cf7565b90506000620f424082610a5f9190611d2b565b9050600860009054906101000a900473ffffffffffffffffffffffffffffffffffffffff1673ffffffffffffffffffffffffffffffffffffffff166323b872dd3330846040518463ffffffff1660e01b8152600401610ac093929190611d6d565b6020604051808303816000875af1158015610adf573d6000803e3d6000fd5b505050506040513d601f19601f82011682018060405250810190610b039190611ddc565b506000831115610c99576000839050600860009054906101000a900473ffffffffffffffffffffffffffffffffffffffff1673ffffffffffffffffffffffffffffffffffffffff1663a9059cbb60028989604051610b62929190611c3b565b908152602001604051809103902060009054906101000a900473ffffffffffffffffffffffffffffffffffffffff16836040518363ffffffff1660e01b8152600401610baf929190611e09565b6020604051808303816000875af1158015610bce573d6000803e3d6000fd5b505050506040513d601f19601f82011682018060405250810190610bf29190611ddc565b50620f424081610c029190611d2b565b6006600060028a8a604051610c18929190611c3b565b908152602001604051809103902060009054906101000a900473ffffffffffffffffffffffffffffffffffffffff1673ffffffffffffffffffffffffffffffffffffffff1673ffffffffffffffffffffffffffffffffffffffff1681526020019081526020016000206000828254610c909190611cf7565b92505081905550505b50505b600073ffffffffffffffffffffffffffffffffffffffff1660028787604051610cc6929190611c3b565b908152602001604051809103902060009054906101000a900473ffffffffffffffffffffffffffffffffffffffff1673ffffffffffffffffffffffffffffffffffffffff1614610d42576040517f7b857a6b00000000000000000000000000000000000000000000000000000000815260040160405180910390fd5b60008686905003610d7f576040517fb4fa3fb300000000000000000000000000000000000000000000000000000000815260040160405180910390fd5b600060028585604051610d93929190611c3b565b908152602001604051809103902060009054906101000a900473ffffffffffffffffffffffffffffffffffffffff169050600073ffffffffffffffffffffffffffffffffffffffff168173ffffffffffffffffffffffffffffffffffffffff16148015610e04575060008585905014155b15610e3b576040517fb4fa3fb300000000000000000000000000000000000000000000000000000000815260040160405180910390fd5b3360028888604051610e4e929190611c3b565b908152602001604051809103902060006101000a81548173ffffffffffffffffffffffffffffffffffffffff021916908373ffffffffffffffffffffffffffffffffffffffff160217905550848460048989604051610eae929190611c3b565b90815260200160405180910390209182610ec992919061206e565b50600060038888604051610ede929190611c3b565b9081526020016040518091039020819055503373ffffffffffffffffffffffffffffffffffffffff167f70f2ff07e8136617cdfb0433423063c9dd697c507560d7860cce09fa86874a128888604051610f3892919061218d565b60405180910390a2600082118015610f505750600034115b15610fa8578073ffffffffffffffffffffffffffffffffffffffff167f847732cc52b65384b9bae3e00c2c0cfcebc420ec5a127ee34300cc1d59ac8b9a868685604051610f9f939291906121b1565b60405180910390a25b50505050505050565b60008054906101000a900473ffffffffffffffffffffffffffffffffffffffff1681565b60008060028484604051610fea929190611c3b565b908152602001604051809103902060009054906101000a900473ffffffffffffffffffffffffffffffffffffffff169050600073ffffffffffffffffffffffffffffffffffffffff168173ffffffffffffffffffffffffffffffffffffffff1603611081576040517f2f80c2cf00000000000000000000000000000000000000000000000000000000815260040160405180910390fd5b8091505092915050565b600080600760009054906101000a900473ffffffffffffffffffffffffffffffffffffffff1673ffffffffffffffffffffffffffffffffffffffff1663feaf968c6040518163ffffffff1660e01b815260040160a060405180830381865afa1580156110fb573d6000803e3d6000fd5b505050506040513d601f19601f8201168201806040525081019061111f9190612270565b5050509150506000811361115f576040517ff45e167b00000000000000000000000000000000000000000000000000000000815260040160405180910390fd5b60006305f5e10082611171919061231a565b90506000620f4240826111849190611d2b565b905060008169d3c21bcecceda10000008761119f9190611d2b565b6111a9919061231a565b905080945050505050919050565b60056020528060005260406000206000915090505481565b60008054906101000a900473ffffffffffffffffffffffffffffffffffffffff1673ffffffffffffffffffffffffffffffffffffffff163373ffffffffffffffffffffffffffffffffffffffff1614611254576040517f5fc483c500000000000000000000000000000000000000000000000000000000815260040160405180910390fd5b600073ffffffffffffffffffffffffffffffffffffffff168273ffffffffffffffffffffffffffffffffffffffff16036113525760008060009054906101000a900473ffffffffffffffffffffffffffffffffffffffff1673ffffffffffffffffffffffffffffffffffffffff16826040516112cf9061237c565b60006040518083038185875af1925050503d806000811461130c576040519150601f19603f3d011682016040523d82523d6000602084013e611311565b606091505b505090508061134c576040517fdcf35db000000000000000000000000000000000000000000000000000000000815260040160405180910390fd5b506113f2565b8173ffffffffffffffffffffffffffffffffffffffff1663a9059cbb60008054906101000a900473ffffffffffffffffffffffffffffffffffffffff16836040518363ffffffff1660e01b81526004016113ad929190611e09565b6020604051808303816000875af11580156113cc573d6000803e3d6000fd5b505050506040513d601f19601f820116820180604052508101906113f09190611ddc565b505b5050565b60015481565b60008111611436576040517f5c2262de00000000000000000000000000000000000000000000000000000000815260040160405180910390fd5b600073ffffffffffffffffffffffffffffffffffffffff168273ffffffffffffffffffffffffffffffffffffffff16036115e25780600560003373ffffffffffffffffffffffffffffffffffffffff1673ffffffffffffffffffffffffffffffffffffffff1681526020019081526020016000205410156114e3576040517fb6d6e7d600000000000000000000000000000000000000000000000000000000815260040160405180910390fd5b80600560003373ffffffffffffffffffffffffffffffffffffffff1673ffffffffffffffffffffffffffffffffffffffff16815260200190815260200160002060008282546115329190612391565b9250508190555060003373ffffffffffffffffffffffffffffffffffffffff168260405161155f9061237c565b60006040518083038185875af1925050503d806000811461159c576040519150601f19603f3d011682016040523d82523d6000602084013e6115a1565b606091505b50509050806115dc576040517fdcf35db000000000000000000000000000000000000000000000000000000000815260040160405180910390fd5b5061176c565b80600660003373ffffffffffffffffffffffffffffffffffffffff1673ffffffffffffffffffffffffffffffffffffffff16815260200190815260200160002054101561165b576040517fb55c1bad00000000000000000000000000000000000000000000000000000000815260040160405180910390fd5b80600660003373ffffffffffffffffffffffffffffffffffffffff1673ffffffffffffffffffffffffffffffffffffffff16815260200190815260200160002060008282546116aa9190612391565b9250508190555060008273ffffffffffffffffffffffffffffffffffffffff1663a9059cbb33846040518363ffffffff1660e01b81526004016116ee929190611e09565b6020604051808303816000875af115801561170d573d6000803e3d6000fd5b505050506040513d601f19601f820116820180604052508101906117319190611ddc565b90508061176a576040517f3704e55600000000000000000000000000000000000000000000000000000000815260040160405180910390fd5b505b3373ffffffffffffffffffffffffffffffffffffffff167fd01566b65da2d62cb66f3844588c99d9a95b38394ccdc9c3f7604536e653cf1b83836040516117b4929190611e09565b60405180910390a25050565b600080600560008473ffffffffffffffffffffffffffffffffffffffff1673ffffffffffffffffffffffffffffffffffffffff16815260200190815260200160002054600660008573ffffffffffffffffffffffffffffffffffffffff1673ffffffffffffffffffffffffffffffffffffffff1681526020019081526020016000205491509150915091565b60007ff0c57e16840df040f15088dc2f81fe391c3923bec73e23a9662efc9c229c6a00905090565b600080fd5b600080fd5b600080fd5b600080fd5b600080fd5b60008083601f8401126118a3576118a261187e565b5b8235905067ffffffffffffffff8111156118c0576118bf611883565b5b6020830191508360018202830111156118dc576118db611888565b5b9250929050565b6000819050919050565b6118f6816118e3565b811461190157600080fd5b50565b600081359050611913816118ed565b92915050565b60008060006040848603121561193257611931611874565b5b600084013567ffffffffffffffff8111156119505761194f611879565b5b61195c8682870161188d565b9350935050602061196f86828701611904565b9150509250925092565b600080602083850312156119905761198f611874565b5b600083013567ffffffffffffffff8111156119ae576119ad611879565b5b6119ba8582860161188d565b92509250509250929050565b6119cf816118e3565b82525050565b60006020820190506119ea60008301846119c6565b92915050565b600073ffffffffffffffffffffffffffffffffffffffff82169050919050565b6000611a1b826119f0565b9050919050565b611a2b81611a10565b8114611a3657600080fd5b50565b600081359050611a4881611a22565b92915050565b60008060408385031215611a6557611a64611874565b5b6000611a7385828601611a39565b9250506020611a8485828601611a39565b9150509250929050565b600060208284031215611aa457611aa3611874565b5b6000611ab284828501611904565b91505092915050565b600060208284031215611ad157611ad0611874565b5b6000611adf84828501611a39565b91505092915050565b60008060008060408587031215611b0257611b01611874565b5b600085013567ffffffffffffffff811115611b2057611b1f611879565b5b611b2c8782880161188d565b9450945050602085013567ffffffffffffffff811115611b4f57611b4e611879565b5b611b5b8782880161188d565b925092505092959194509250565b611b7281611a10565b82525050565b6000602082019050611b8d6000830184611b69565b92915050565b60008060408385031215611baa57611ba9611874565b5b6000611bb885828601611a39565b9250506020611bc985828601611904565b9150509250929050565b6000604082019050611be860008301856119c6565b611bf560208301846119c6565b9392505050565b600081905092915050565b82818337600083830152505050565b6000611c228385611bfc565b9350611c2f838584611c07565b82840190509392505050565b6000611c48828486611c16565b91508190509392505050565b6000819050919050565b600067ffffffffffffffff82169050919050565b6000819050919050565b6000611c97611c92611c8d84611c54565b611c72565b611c5e565b9050919050565b611ca781611c7c565b82525050565b6000602082019050611cc26000830184611c9e565b92915050565b7f4e487b7100000000000000000000000000000000000000000000000000000000600052601160045260246000fd5b6000611d02826118e3565b9150611d0d836118e3565b9250828201905080821115611d2557611d24611cc8565b5b92915050565b6000611d36826118e3565b9150611d41836118e3565b9250828202611d4f816118e3565b91508282048414831517611d6657611d65611cc8565b5b5092915050565b6000606082019050611d826000830186611b69565b611d8f6020830185611b69565b611d9c60408301846119c6565b949350505050565b60008115159050919050565b611db981611da4565b8114611dc457600080fd5b50565b600081519050611dd681611db0565b92915050565b600060208284031215611df257611df1611874565b5b6000611e0084828501611dc7565b91505092915050565b6000604082019050611e1e6000830185611b69565b611e2b60208301846119c6565b9392505050565b600082905092915050565b7f4e487b7100000000000000000000000000000000000000000000000000000000600052604160045260246000fd5b7f4e487b7100000000000000000000000000000000000000000000000000000000600052602260045260246000fd5b60006002820490506001821680611eb357607f821691505b602082108103611ec657611ec5611e6c565b5b50919050565b60008190508160005260206000209050919050565b60006020601f8301049050919050565b600082821b905092915050565b600060088302611f2e7fffffffffffffffffffffffffffffffffffffffffffffffffffffffffffffffff82611ef1565b611f388683611ef1565b95508019841693508086168417925050509392505050565b6000611f6b611f66611f61846118e3565b611c72565b6118e3565b9050919050565b6000819050919050565b611f8583611f50565b611f99611f9182611f72565b848454611efe565b825550505050565b600090565b611fae611fa1565b611fb9818484611f7c565b505050565b5b81811015611fdd57611fd2600082611fa6565b600181019050611fbf565b5050565b601f82111561202257611ff381611ecc565b611ffc84611ee1565b8101602085101561200b578190505b61201f61201785611ee1565b830182611fbe565b50505b505050565b600082821c905092915050565b600061204560001984600802612027565b1980831691505092915050565b600061205e8383612034565b9150826002028217905092915050565b6120788383611e32565b67ffffffffffffffff81111561209157612090611e3d565b5b61209b8254611e9b565b6120a6828285611fe1565b6000601f8311600181146120d557600084156120c3578287013590505b6120cd8582612052565b865550612135565b601f1984166120e386611ecc565b60005b8281101561210b578489013582556001820191506020850194506020810190506120e6565b868310156121285784890135612124601f891682612034565b8355505b6001600288020188555050505b50505050505050565b600082825260208201905092915050565b6000601f19601f8301169050919050565b600061216c838561213e565b9350612179838584611c07565b6121828361214f565b840190509392505050565b600060208201905081810360008301526121a8818486612160565b90509392505050565b600060408201905081810360008301526121cc818587612160565b90506121db60208301846119c6565b949350505050565b600069ffffffffffffffffffff82169050919050565b612202816121e3565b811461220d57600080fd5b50565b60008151905061221f816121f9565b92915050565b6000819050919050565b61223881612225565b811461224357600080fd5b50565b6000815190506122558161222f565b92915050565b60008151905061226a816118ed565b92915050565b600080600080600060a0868803121561228c5761228b611874565b5b600061229a88828901612210565b95505060206122ab88828901612246565b94505060406122bc8882890161225b565b93505060606122cd8882890161225b565b92505060806122de88828901612210565b9150509295509295909350565b7f4e487b7100000000000000000000000000000000000000000000000000000000600052601260045260246000fd5b6000612325826118e3565b9150612330836118e3565b9250826123405761233f6122eb565b5b828204905092915050565b600081905092915050565b50565b600061236660008361234b565b915061237182612356565b600082019050919050565b600061238782612359565b9150819050919050565b600061239c826118e3565b91506123a7836118e3565b92508282039050818111156123bf576123be611cc8565b5b9291505056fea2646970667358221220bd554b2418027b6882f5aba632698056753373ba4d51e303874bfb36f2f4972264736f6c63430008180033",
  "linkReferences": {},
  "deployedLinkReferences": {}
}