{
    "data": {
        "bytecode": {
            "linkReferences": {},
            "object": "608060405234801562000010575f80fd5b5060405162002ee638038062002ee6833981810160405281019062000036919062000643565b8383816003908162000049919062000927565b5080600490816200005b919062000927565b50601260055f6101000a81548160ff021916908360ff16021790555050505f6200008a6200022b60201b60201c565b905080600560016101000a81548173ffffffffffffffffffffffffffffffffffffffff021916908373ffffffffffffffffffffffffffffffffffffffff1602179055508073ffffffffffffffffffffffffffffffffffffffff165f73ffffffffffffffffffffffffffffffffffffffff167f8be0079c531659141344cd1fd0a4f28419497f9722a3daafe3b4186f6b6457e060405160405180910390a3505f4690507f8b73c3c69bb8fe3d512ecc4cf759cc79239f7b179b0ffacaa9a75d522b39400f85805190602001206040518060400160405280600181526020017f3100000000000000000000000000000000000000000000000000000000000000815250805190602001208330604051602001620001aa95949392919062000a47565b60405160208183030381529060405280519060200120600781905550620001d7836200023260201b60201c565b5f73ffffffffffffffffffffffffffffffffffffffff168273ffffffffffffffffffffffffffffffffffffffff16036200020f575f80fd5b62000220826200024f60201b60201c565b505050505062000bb4565b5f33905090565b8060055f6101000a81548160ff021916908360ff16021790555050565b6200025f6200022b60201b60201c565b73ffffffffffffffffffffffffffffffffffffffff16600560019054906101000a900473ffffffffffffffffffffffffffffffffffffffff1673ffffffffffffffffffffffffffffffffffffffff1614620002f1576040517f08c379a0000000000000000000000000000000000000000000000000000000008152600401620002e89062000b00565b60405180910390fd5b5f73ffffffffffffffffffffffffffffffffffffffff168173ffffffffffffffffffffffffffffffffffffffff160362000362576040517f08c379a0000000000000000000000000000000000000000000000000000000008152600401620003599062000b94565b60405180910390fd5b8073ffffffffffffffffffffffffffffffffffffffff16600560019054906101000a900473ffffffffffffffffffffffffffffffffffffffff1673ffffffffffffffffffffffffffffffffffffffff167f8be0079c531659141344cd1fd0a4f28419497f9722a3daafe3b4186f6b6457e060405160405180910390a380600560016101000a81548173ffffffffffffffffffffffffffffffffffffffff021916908373ffffffffffffffffffffffffffffffffffffffff16021790555050565b5f604051905090565b5f80fd5b5f80fd5b5f80fd5b5f80fd5b5f601f19601f8301169050919050565b7f4e487b71000000000000000000000000000000000000000000000000000000005f52604160045260245ffd5b62000483826200043b565b810181811067ffffffffffffffff82111715620004a557620004a46200044b565b5b80604052505050565b5f620004b962000422565b9050620004c7828262000478565b919050565b5f67ffffffffffffffff821115620004e957620004e86200044b565b5b620004f4826200043b565b9050602081019050919050565b5f5b838110156200052057808201518184015260208101905062000503565b5f8484015250505050565b5f620005416200053b84620004cc565b620004ae565b90508281526020810184848401111562000560576200055f62000437565b5b6200056d84828562000501565b509392505050565b5f82601f8301126200058c576200058b62000433565b5b81516200059e8482602086016200052b565b91505092915050565b5f60ff82169050919050565b620005be81620005a7565b8114620005c9575f80fd5b50565b5f81519050620005dc81620005b3565b92915050565b5f73ffffffffffffffffffffffffffffffffffffffff82169050919050565b5f6200060d82620005e2565b9050919050565b6200061f8162000601565b81146200062a575f80fd5b50565b5f815190506200063d8162000614565b92915050565b5f805f80608085870312156200065e576200065d6200042b565b5b5f85015167ffffffffffffffff8111156200067e576200067d6200042f565b5b6200068c8782880162000575565b945050602085015167ffffffffffffffff811115620006b057620006af6200042f565b5b620006be8782880162000575565b9350506040620006d187828801620005cc565b9250506060620006e4878288016200062d565b91505092959194509250565b5f81519050919050565b7f4e487b71000000000000000000000000000000000000000000000000000000005f52602260045260245ffd5b5f60028204905060018216806200073f57607f821691505b602082108103620007555762000754620006fa565b5b50919050565b5f819050815f5260205f209050919050565b5f6020601f8301049050919050565b5f82821b905092915050565b5f60088302620007b97fffffffffffffffffffffffffffffffffffffffffffffffffffffffffffffffff826200077c565b620007c586836200077c565b95508019841693508086168417925050509392505050565b5f819050919050565b5f819050919050565b5f6200080f620008096200080384620007dd565b620007e6565b620007dd565b9050919050565b5f819050919050565b6200082a83620007ef565b62000842620008398262000816565b84845462000788565b825550505050565b5f90565b620008586200084a565b620008658184846200081f565b505050565b5b818110156200088c57620008805f826200084e565b6001810190506200086b565b5050565b601f821115620008db57620008a5816200075b565b620008b0846200076d565b81016020851015620008c0578190505b620008d8620008cf856200076d565b8301826200086a565b50505b505050565b5f82821c905092915050565b5f620008fd5f1984600802620008e0565b1980831691505092915050565b5f620009178383620008ec565b9150826002028217905092915050565b6200093282620006f0565b67ffffffffffffffff8111156200094e576200094d6200044b565b5b6200095a825462000727565b6200096782828562000890565b5f60209050601f8311600181146200099d575f841562000988578287015190505b6200099485826200090a565b86555062000a03565b601f198416620009ad866200075b565b5f5b82811015620009d657848901518255600182019150602085019450602081019050620009af565b86831015620009f65784890151620009f2601f891682620008ec565b8355505b6001600288020188555050505b505050505050565b5f819050919050565b62000a1f8162000a0b565b82525050565b62000a3081620007dd565b82525050565b62000a418162000601565b82525050565b5f60a08201905062000a5c5f83018862000a14565b62000a6b602083018762000a14565b62000a7a604083018662000a14565b62000a89606083018562000a25565b62000a98608083018462000a36565b9695505050505050565b5f82825260208201905092915050565b7f4f776e61626c653a2063616c6c6572206973206e6f7420746865206f776e65725f82015250565b5f62000ae860208362000aa2565b915062000af58262000ab2565b602082019050919050565b5f6020820190508181035f83015262000b198162000ada565b9050919050565b7f4f776e61626c653a206e6577206f776e657220697320746865207a65726f20615f8201527f6464726573730000000000000000000000000000000000000000000000000000602082015250565b5f62000b7c60268362000aa2565b915062000b898262000b20565b604082019050919050565b5f6020820190508181035f83015262000bad8162000b6e565b9050919050565b6123248062000bc25f395ff3fe608060405234801561000f575f80fd5b5060043610610135575f3560e01c8063715018a6116100b6578063a0712d681161007a578063a0712d6814610353578063a457c2d714610383578063a9059cbb146103b3578063d505accf146103e3578063dd62ed3e146103ff578063f2fde38b1461042f57610135565b8063715018a6146102bf57806378160376146102c95780637ecebe00146102e75780638da5cb5b1461031757806395d89b411461033557610135565b8063313ce567116100fd578063313ce567146101f35780633644e51514610211578063395093511461022f57806340c10f191461025f57806370a082311461028f57610135565b806306fdde0314610139578063095ea7b31461015757806318160ddd1461018757806323b872dd146101a557806330adf81f146101d5575b5f80fd5b61014161044b565b60405161014e9190611786565b60405180910390f35b610171600480360381019061016c9190611837565b6104db565b60405161017e919061188f565b60405180910390f35b61018f6104f8565b60405161019c91906118b7565b60405180910390f35b6101bf60048036038101906101ba91906118d0565b610501565b6040516101cc919061188f565b60405180910390f35b6101dd6105d5565b6040516101ea9190611938565b60405180910390f35b6101fb6105f9565b604051610208919061196c565b60405180910390f35b61021961060e565b6040516102269190611938565b60405180910390f35b61024960048036038101906102449190611837565b610614565b604051610256919061188f565b60405180910390f35b61027960048036038101906102749190611837565b6106c2565b604051610286919061188f565b60405180910390f35b6102a960048036038101906102a49190611985565b61076e565b6040516102b691906118b7565b60405180910390f35b6102c76107b3565b005b6102d1610909565b6040516102de9190611a02565b60405180910390f35b61030160048036038101906102fc9190611985565b610942565b60405161030e91906118b7565b60405180910390f35b61031f610988565b60405161032c9190611a31565b60405180910390f35b61033d6109b1565b60405161034a9190611786565b60405180910390f35b61036d60048036038101906103689190611a4a565b610a41565b60405161037a919061188f565b60405180910390f35b61039d60048036038101906103989190611837565b610af3565b6040516103aa919061188f565b60405180910390f35b6103cd60048036038101906103c89190611837565b610bbb565b6040516103da919061188f565b60405180910390f35b6103fd60048036038101906103f89190611ac9565b610bd8565b005b61041960048036038101906104149190611b66565b610e65565b60405161042691906118b7565b60405180910390f35b61044960048036038101906104449190611985565b610ee7565b005b60606003805461045a90611bd1565b80601f016020809104026020016040519081016040528092919081815260200182805461048690611bd1565b80156104d15780601f106104a8576101008083540402835291602001916104d1565b820191905f5260205f20905b8154815290600101906020018083116104b457829003601f168201915b5050505050905090565b5f6104ee6104e76110ac565b84846110b3565b6001905092915050565b5f600254905090565b5f61050d848484611276565b6105ca846105196110ac565b6105c5856040518060600160405280602881526020016122a26028913960015f8b73ffffffffffffffffffffffffffffffffffffffff1673ffffffffffffffffffffffffffffffffffffffff1681526020019081526020015f205f61057c6110ac565b73ffffffffffffffffffffffffffffffffffffffff1673ffffffffffffffffffffffffffffffffffffffff1681526020019081526020015f20546114ff9092919063ffffffff16565b6110b3565b600190509392505050565b7f6e71edae12b1b97f4d1f60370fef10105fa2faae0126114a169c64845d6126c981565b5f60055f9054906101000a900460ff16905090565b60075481565b5f6106b86106206110ac565b846106b38560015f6106306110ac565b73ffffffffffffffffffffffffffffffffffffffff1673ffffffffffffffffffffffffffffffffffffffff1681526020019081526020015f205f8973ffffffffffffffffffffffffffffffffffffffff1673ffffffffffffffffffffffffffffffffffffffff1681526020019081526020015f205461155390919063ffffffff16565b6110b3565b6001905092915050565b5f6106cb6110ac565b73ffffffffffffffffffffffffffffffffffffffff16600560019054906101000a900473ffffffffffffffffffffffffffffffffffffffff1673ffffffffffffffffffffffffffffffffffffffff161461075a576040517f08c379a000000000000000000000000000000000000000000000000000000000815260040161075190611c4b565b60405180910390fd5b610764838361156b565b6001905092915050565b5f805f8373ffffffffffffffffffffffffffffffffffffffff1673ffffffffffffffffffffffffffffffffffffffff1681526020019081526020015f20549050919050565b6107bb6110ac565b73ffffffffffffffffffffffffffffffffffffffff16600560019054906101000a900473ffffffffffffffffffffffffffffffffffffffff1673ffffffffffffffffffffffffffffffffffffffff161461084a576040517f08c379a000000000000000000000000000000000000000000000000000000000815260040161084190611c4b565b60405180910390fd5b5f73ffffffffffffffffffffffffffffffffffffffff16600560019054906101000a900473ffffffffffffffffffffffffffffffffffffffff1673ffffffffffffffffffffffffffffffffffffffff167f8be0079c531659141344cd1fd0a4f28419497f9722a3daafe3b4186f6b6457e060405160405180910390a35f600560016101000a81548173ffffffffffffffffffffffffffffffffffffffff021916908373ffffffffffffffffffffffffffffffffffffffff160217905550565b6040518060400160405280600181526020017f310000000000000000000000000000000000000000000000000000000000000081525081565b5f60065f8373ffffffffffffffffffffffffffffffffffffffff1673ffffffffffffffffffffffffffffffffffffffff1681526020019081526020015f20549050919050565b5f600560019054906101000a900473ffffffffffffffffffffffffffffffffffffffff16905090565b6060600480546109c090611bd1565b80601f01602080910402602001604051908101604052809291908181526020018280546109ec90611bd1565b8015610a375780601f10610a0e57610100808354040283529160200191610a37565b820191905f5260205f20905b815481529060010190602001808311610a1a57829003601f168201915b5050505050905090565b5f610a4a6110ac565b73ffffffffffffffffffffffffffffffffffffffff16600560019054906101000a900473ffffffffffffffffffffffffffffffffffffffff1673ffffffffffffffffffffffffffffffffffffffff1614610ad9576040517f08c379a0000000000000000000000000000000000000000000000000000000008152600401610ad090611c4b565b60405180910390fd5b610aea610ae46110ac565b8361156b565b60019050919050565b5f610bb1610aff6110ac565b84610bac856040518060600160405280602581526020016122ca6025913960015f610b286110ac565b73ffffffffffffffffffffffffffffffffffffffff1673ffffffffffffffffffffffffffffffffffffffff1681526020019081526020015f205f8a73ffffffffffffffffffffffffffffffffffffffff1673ffffffffffffffffffffffffffffffffffffffff1681526020019081526020015f20546114ff9092919063ffffffff16565b6110b3565b6001905092915050565b5f610bce610bc76110ac565b8484611276565b6001905092915050565b5f73ffffffffffffffffffffffffffffffffffffffff168773ffffffffffffffffffffffffffffffffffffffff1603610c46576040517f08c379a0000000000000000000000000000000000000000000000000000000008152600401610c3d90611cb3565b60405180910390fd5b83421115610c89576040517f08c379a0000000000000000000000000000000000000000000000000000000008152600401610c8090611d1b565b60405180910390fd5b5f60065f8973ffffffffffffffffffffffffffffffffffffffff1673ffffffffffffffffffffffffffffffffffffffff1681526020019081526020015f205490505f6007547f6e71edae12b1b97f4d1f60370fef10105fa2faae0126114a169c64845d6126c98a8a8a868b604051602001610d0996959493929190611d39565b60405160208183030381529060405280519060200120604051602001610d30929190611e0c565b6040516020818303038152906040528051906020012090506001818686866040515f8152602001604052604051610d6a9493929190611e42565b6020604051602081039080840390855afa158015610d8a573d5f803e3d5ffd5b5050506020604051035173ffffffffffffffffffffffffffffffffffffffff168973ffffffffffffffffffffffffffffffffffffffff1614610e01576040517f08c379a0000000000000000000000000000000000000000000000000000000008152600401610df890611ecf565b60405180910390fd5b600182610e0e9190611f1a565b60065f8b73ffffffffffffffffffffffffffffffffffffffff1673ffffffffffffffffffffffffffffffffffffffff1681526020019081526020015f2081905550610e5a8989896110b3565b505050505050505050565b5f60015f8473ffffffffffffffffffffffffffffffffffffffff1673ffffffffffffffffffffffffffffffffffffffff1681526020019081526020015f205f8373ffffffffffffffffffffffffffffffffffffffff1673ffffffffffffffffffffffffffffffffffffffff1681526020019081526020015f2054905092915050565b610eef6110ac565b73ffffffffffffffffffffffffffffffffffffffff16600560019054906101000a900473ffffffffffffffffffffffffffffffffffffffff1673ffffffffffffffffffffffffffffffffffffffff1614610f7e576040517f08c379a0000000000000000000000000000000000000000000000000000000008152600401610f7590611c4b565b60405180910390fd5b5f73ffffffffffffffffffffffffffffffffffffffff168173ffffffffffffffffffffffffffffffffffffffff1603610fec576040517f08c379a0000000000000000000000000000000000000000000000000000000008152600401610fe390611fbd565b60405180910390fd5b8073ffffffffffffffffffffffffffffffffffffffff16600560019054906101000a900473ffffffffffffffffffffffffffffffffffffffff1673ffffffffffffffffffffffffffffffffffffffff167f8be0079c531659141344cd1fd0a4f28419497f9722a3daafe3b4186f6b6457e060405160405180910390a380600560016101000a81548173ffffffffffffffffffffffffffffffffffffffff021916908373ffffffffffffffffffffffffffffffffffffffff16021790555050565b5f33905090565b5f73ffffffffffffffffffffffffffffffffffffffff168373ffffffffffffffffffffffffffffffffffffffff1603611121576040517f08c379a00000000000000000000000000000000000000000000000000000000081526004016111189061204b565b60405180910390fd5b5f73ffffffffffffffffffffffffffffffffffffffff168273ffffffffffffffffffffffffffffffffffffffff160361118f576040517f08c379a0000000000000000000000000000000000000000000000000000000008152600401611186906120d9565b60405180910390fd5b8060015f8573ffffffffffffffffffffffffffffffffffffffff1673ffffffffffffffffffffffffffffffffffffffff1681526020019081526020015f205f8473ffffffffffffffffffffffffffffffffffffffff1673ffffffffffffffffffffffffffffffffffffffff1681526020019081526020015f20819055508173ffffffffffffffffffffffffffffffffffffffff168373ffffffffffffffffffffffffffffffffffffffff167f8c5be1e5ebec7d5bd14f71427d1e84f3dd0314c0f7b2291e5b200ac8c7c3b9258360405161126991906118b7565b60405180910390a3505050565b5f73ffffffffffffffffffffffffffffffffffffffff168373ffffffffffffffffffffffffffffffffffffffff16036112e4576040517f08c379a00000000000000000000000000000000000000000000000000000000081526004016112db90612167565b60405180910390fd5b5f73ffffffffffffffffffffffffffffffffffffffff168273ffffffffffffffffffffffffffffffffffffffff1603611352576040517f08c379a0000000000000000000000000000000000000000000000000000000008152600401611349906121f5565b60405180910390fd5b61135d8383836116f7565b6113c68160405180606001604052806026815260200161227c602691395f808773ffffffffffffffffffffffffffffffffffffffff1673ffffffffffffffffffffffffffffffffffffffff1681526020019081526020015f20546114ff9092919063ffffffff16565b5f808573ffffffffffffffffffffffffffffffffffffffff1673ffffffffffffffffffffffffffffffffffffffff1681526020019081526020015f2081905550611455815f808573ffffffffffffffffffffffffffffffffffffffff1673ffffffffffffffffffffffffffffffffffffffff1681526020019081526020015f205461155390919063ffffffff16565b5f808473ffffffffffffffffffffffffffffffffffffffff1673ffffffffffffffffffffffffffffffffffffffff1681526020019081526020015f20819055508173ffffffffffffffffffffffffffffffffffffffff168373ffffffffffffffffffffffffffffffffffffffff167fddf252ad1be2c89b69c2b068fc378daa952ba7f163c4a11628f55a4df523b3ef836040516114f291906118b7565b60405180910390a3505050565b5f838385039150811115829061154b576040517f08c379a00000000000000000000000000000000000000000000000000000000081526004016115429190611786565b60405180910390fd5b509392505050565b5f828284019150811015611565575f80fd5b92915050565b5f73ffffffffffffffffffffffffffffffffffffffff168273ffffffffffffffffffffffffffffffffffffffff16036115d9576040517f08c379a00000000000000000000000000000000000000000000000000000000081526004016115d09061225d565b60405180910390fd5b6115e45f83836116f7565b6115f98160025461155390919063ffffffff16565b60028190555061164e815f808573ffffffffffffffffffffffffffffffffffffffff1673ffffffffffffffffffffffffffffffffffffffff1681526020019081526020015f205461155390919063ffffffff16565b5f808473ffffffffffffffffffffffffffffffffffffffff1673ffffffffffffffffffffffffffffffffffffffff1681526020019081526020015f20819055508173ffffffffffffffffffffffffffffffffffffffff165f73ffffffffffffffffffffffffffffffffffffffff167fddf252ad1be2c89b69c2b068fc378daa952ba7f163c4a11628f55a4df523b3ef836040516116eb91906118b7565b60405180910390a35050565b505050565b5f81519050919050565b5f82825260208201905092915050565b5f5b83811015611733578082015181840152602081019050611718565b5f8484015250505050565b5f601f19601f8301169050919050565b5f611758826116fc565b6117628185611706565b9350611772818560208601611716565b61177b8161173e565b840191505092915050565b5f6020820190508181035f83015261179e818461174e565b905092915050565b5f80fd5b5f73ffffffffffffffffffffffffffffffffffffffff82169050919050565b5f6117d3826117aa565b9050919050565b6117e3816117c9565b81146117ed575f80fd5b50565b5f813590506117fe816117da565b92915050565b5f819050919050565b61181681611804565b8114611820575f80fd5b50565b5f813590506118318161180d565b92915050565b5f806040838503121561184d5761184c6117a6565b5b5f61185a858286016117f0565b925050602061186b85828601611823565b9150509250929050565b5f8115159050919050565b61188981611875565b82525050565b5f6020820190506118a25f830184611880565b92915050565b6118b181611804565b82525050565b5f6020820190506118ca5f8301846118a8565b92915050565b5f805f606084860312156118e7576118e66117a6565b5b5f6118f4868287016117f0565b9350506020611905868287016117f0565b925050604061191686828701611823565b9150509250925092565b5f819050919050565b61193281611920565b82525050565b5f60208201905061194b5f830184611929565b92915050565b5f60ff82169050919050565b61196681611951565b82525050565b5f60208201905061197f5f83018461195d565b92915050565b5f6020828403121561199a576119996117a6565b5b5f6119a7848285016117f0565b91505092915050565b5f81519050919050565b5f82825260208201905092915050565b5f6119d4826119b0565b6119de81856119ba565b93506119ee818560208601611716565b6119f78161173e565b840191505092915050565b5f6020820190508181035f830152611a1a81846119ca565b905092915050565b611a2b816117c9565b82525050565b5f602082019050611a445f830184611a22565b92915050565b5f60208284031215611a5f57611a5e6117a6565b5b5f611a6c84828501611823565b91505092915050565b611a7e81611951565b8114611a88575f80fd5b50565b5f81359050611a9981611a75565b92915050565b611aa881611920565b8114611ab2575f80fd5b50565b5f81359050611ac381611a9f565b92915050565b5f805f805f805f60e0888a031215611ae457611ae36117a6565b5b5f611af18a828b016117f0565b9750506020611b028a828b016117f0565b9650506040611b138a828b01611823565b9550506060611b248a828b01611823565b9450506080611b358a828b01611a8b565b93505060a0611b468a828b01611ab5565b92505060c0611b578a828b01611ab5565b91505092959891949750929550565b5f8060408385031215611b7c57611b7b6117a6565b5b5f611b89858286016117f0565b9250506020611b9a858286016117f0565b9150509250929050565b7f4e487b71000000000000000000000000000000000000000000000000000000005f52602260045260245ffd5b5f6002820490506001821680611be857607f821691505b602082108103611bfb57611bfa611ba4565b5b50919050565b7f4f776e61626c653a2063616c6c6572206973206e6f7420746865206f776e65725f82015250565b5f611c35602083611706565b9150611c4082611c01565b602082019050919050565b5f6020820190508181035f830152611c6281611c29565b9050919050565b7f494e56414c49445f4f574e4552000000000000000000000000000000000000005f82015250565b5f611c9d600d83611706565b9150611ca882611c69565b602082019050919050565b5f6020820190508181035f830152611cca81611c91565b9050919050565b7f494e56414c49445f45585049524154494f4e00000000000000000000000000005f82015250565b5f611d05601283611706565b9150611d1082611cd1565b602082019050919050565b5f6020820190508181035f830152611d3281611cf9565b9050919050565b5f60c082019050611d4c5f830189611929565b611d596020830188611a22565b611d666040830187611a22565b611d7360608301866118a8565b611d8060808301856118a8565b611d8d60a08301846118a8565b979650505050505050565b5f81905092915050565b7f19010000000000000000000000000000000000000000000000000000000000005f82015250565b5f611dd6600283611d98565b9150611de182611da2565b600282019050919050565b5f819050919050565b611e06611e0182611920565b611dec565b82525050565b5f611e1682611dca565b9150611e228285611df5565b602082019150611e328284611df5565b6020820191508190509392505050565b5f608082019050611e555f830187611929565b611e62602083018661195d565b611e6f6040830185611929565b611e7c6060830184611929565b95945050505050565b7f494e56414c49445f5349474e41545552450000000000000000000000000000005f82015250565b5f611eb9601183611706565b9150611ec482611e85565b602082019050919050565b5f6020820190508181035f830152611ee681611ead565b9050919050565b7f4e487b71000000000000000000000000000000000000000000000000000000005f52601160045260245ffd5b5f611f2482611804565b9150611f2f83611804565b9250828201905080821115611f4757611f46611eed565b5b92915050565b7f4f776e61626c653a206e6577206f776e657220697320746865207a65726f20615f8201527f6464726573730000000000000000000000000000000000000000000000000000602082015250565b5f611fa7602683611706565b9150611fb282611f4d565b604082019050919050565b5f6020820190508181035f830152611fd481611f9b565b9050919050565b7f45524332303a20617070726f76652066726f6d20746865207a65726f206164645f8201527f7265737300000000000000000000000000000000000000000000000000000000602082015250565b5f612035602483611706565b915061204082611fdb565b604082019050919050565b5f6020820190508181035f83015261206281612029565b9050919050565b7f45524332303a20617070726f766520746f20746865207a65726f2061646472655f8201527f7373000000000000000000000000000000000000000000000000000000000000602082015250565b5f6120c3602283611706565b91506120ce82612069565b604082019050919050565b5f6020820190508181035f8301526120f0816120b7565b9050919050565b7f45524332303a207472616e736665722066726f6d20746865207a65726f2061645f8201527f6472657373000000000000000000000000000000000000000000000000000000602082015250565b5f612151602583611706565b915061215c826120f7565b604082019050919050565b5f6020820190508181035f83015261217e81612145565b9050919050565b7f45524332303a207472616e7366657220746f20746865207a65726f20616464725f8201527f6573730000000000000000000000000000000000000000000000000000000000602082015250565b5f6121df602383611706565b91506121ea82612185565b604082019050919050565b5f6020820190508181035f83015261220c816121d3565b9050919050565b7f45524332303a206d696e7420746f20746865207a65726f2061646472657373005f82015250565b5f612247601f83611706565b915061225282612213565b602082019050919050565b5f6020820190508181035f8301526122748161223b565b905091905056fe45524332303a207472616e7366657220616d6f756e7420657863656564732062616c616e636545524332303a207472616e7366657220616d6f756e74206578636565647320616c6c6f77616e636545524332303a2064656372656173656420616c6c6f77616e63652062656c6f77207a65726fa2646970667358221220e4b9a2750cf018d2733de054d967e2958fa23f3dbdf8269461b441d3b15df1c664736f6c63430008180033",
            "opcodes": "PUSH1 0x80 PUSH1 0x40 MSTORE CALLVALUE DUP1 ISZERO PUSH3 0x10 JUMPI PUSH0 DUP1 REVERT JUMPDEST POP PUSH1 0x40 MLOAD PUSH3 0x2EE6 CODESIZE SUB DUP1 PUSH3 0x2EE6 DUP4 CODECOPY DUP2 DUP2 ADD PUSH1 0x40 MSTORE DUP2 ADD SWAP1 PUSH3 0x36 SWAP2 SWAP1 PUSH3 0x643 JUMP JUMPDEST DUP4 DUP4 DUP2 PUSH1 0x3 SWAP1 DUP2 PUSH3 0x49 SWAP2 SWAP1 PUSH3 0x927 JUMP JUMPDEST POP DUP1 PUSH1 0x4 SWAP1 DUP2 PUSH3 0x5B SWAP2 SWAP1 PUSH3 0x927 JUMP JUMPDEST POP PUSH1 0x12 PUSH1 0x5 PUSH0 PUSH2 0x100 EXP DUP2 SLOAD DUP2 PUSH1 0xFF MUL NOT AND SWAP1 DUP4 PUSH1 0xFF AND MUL OR SWAP1 SSTORE POP POP POP PUSH0 PUSH3 0x8A PUSH3 0x22B PUSH1 0x20 SHL PUSH1 0x20 SHR JUMP JUMPDEST SWAP1 POP DUP1 PUSH1 0x5 PUSH1 0x1 PUSH2 0x100 EXP DUP2 SLOAD DUP2 PUSH20 0xFFFFFFFFFFFFFFFFFFFFFFFFFFFFFFFFFFFFFFFF MUL NOT AND SWAP1 DUP4 PUSH20 0xFFFFFFFFFFFFFFFFFFFFFFFFFFFFFFFFFFFFFFFF AND MUL OR SWAP1 SSTORE POP DUP1 PUSH20 0xFFFFFFFFFFFFFFFFFFFFFFFFFFFFFFFFFFFFFFFF AND PUSH0 PUSH20 0xFFFFFFFFFFFFFFFFFFFFFFFFFFFFFFFFFFFFFFFF AND PUSH32 0x8BE0079C531659141344CD1FD0A4F28419497F9722A3DAAFE3B4186F6B6457E0 PUSH1 0x40 MLOAD PUSH1 0x40 MLOAD DUP1 SWAP2 SUB SWAP1 LOG3 POP PUSH0 CHAINID SWAP1 POP PUSH32 0x8B73C3C69BB8FE3D512ECC4CF759CC79239F7B179B0FFACAA9A75D522B39400F DUP6 DUP1 MLOAD SWAP1 PUSH1 0x20 ADD KECCAK256 PUSH1 0x40 MLOAD DUP1 PUSH1 0x40 ADD PUSH1 0x40 MSTORE DUP1 PUSH1 0x1 DUP2 MSTORE PUSH1 0x20 ADD PUSH32 0x3100000000000000000000000000000000000000000000000000000000000000 DUP2 MSTORE POP DUP1 MLOAD SWAP1 PUSH1 0x20 ADD KECCAK256 DUP4 ADDRESS PUSH1 0x40 MLOAD PUSH1 0x20 ADD PUSH3 0x1AA SWAP6 SWAP5 SWAP4 SWAP3 SWAP2 SWAP1 PUSH3 0xA47 JUMP JUMPDEST PUSH1 0x40 MLOAD PUSH1 0x20 DUP2 DUP4 SUB SUB DUP2 MSTORE SWAP1 PUSH1 0x40 MSTORE DUP1 MLOAD SWAP1 PUSH1 0x20 ADD KECCAK256 PUSH1 0x7 DUP2 SWAP1 SSTORE POP PUSH3 0x1D7 DUP4 PUSH3 0x232 PUSH1 0x20 SHL PUSH1 0x20 SHR JUMP JUMPDEST PUSH0 PUSH20 0xFFFFFFFFFFFFFFFFFFFFFFFFFFFFFFFFFFFFFFFF AND DUP3 PUSH20 0xFFFFFFFFFFFFFFFFFFFFFFFFFFFFFFFFFFFFFFFF AND SUB PUSH3 0x20F JUMPI PUSH0 DUP1 REVERT JUMPDEST PUSH3 0x220 DUP3 PUSH3 0x24F PUSH1 0x20 SHL PUSH1 0x20 SHR JUMP JUMPDEST POP POP POP POP POP PUSH3 0xBB4 JUMP JUMPDEST PUSH0 CALLER SWAP1 POP SWAP1 JUMP JUMPDEST DUP1 PUSH1 0x5 PUSH0 PUSH2 0x100 EXP DUP2 SLOAD DUP2 PUSH1 0xFF MUL NOT AND SWAP1 DUP4 PUSH1 0xFF AND MUL OR SWAP1 SSTORE POP POP JUMP JUMPDEST PUSH3 0x25F PUSH3 0x22B PUSH1 0x20 SHL PUSH1 0x20 SHR JUMP JUMPDEST PUSH20 0xFFFFFFFFFFFFFFFFFFFFFFFFFFFFFFFFFFFFFFFF AND PUSH1 0x5 PUSH1 0x1 SWAP1 SLOAD SWAP1 PUSH2 0x100 EXP SWAP1 DIV PUSH20 0xFFFFFFFFFFFFFFFFFFFFFFFFFFFFFFFFFFFFFFFF AND PUSH20 0xFFFFFFFFFFFFFFFFFFFFFFFFFFFFFFFFFFFFFFFF AND EQ PUSH3 0x2F1 JUMPI PUSH1 0x40 MLOAD PUSH32 0x8C379A000000000000000000000000000000000000000000000000000000000 DUP2 MSTORE PUSH1 0x4 ADD PUSH3 0x2E8 SWAP1 PUSH3 0xB00 JUMP JUMPDEST PUSH1 0x40 MLOAD DUP1 SWAP2 SUB SWAP1 REVERT JUMPDEST PUSH0 PUSH20 0xFFFFFFFFFFFFFFFFFFFFFFFFFFFFFFFFFFFFFFFF AND DUP2 PUSH20 0xFFFFFFFFFFFFFFFFFFFFFFFFFFFFFFFFFFFFFFFF AND SUB PUSH3 0x362 JUMPI PUSH1 0x40 MLOAD PUSH32 0x8C379A000000000000000000000000000000000000000000000000000000000 DUP2 MSTORE PUSH1 0x4 ADD PUSH3 0x359 SWAP1 PUSH3 0xB94 JUMP JUMPDEST PUSH1 0x40 MLOAD DUP1 SWAP2 SUB SWAP1 REVERT JUMPDEST DUP1 PUSH20 0xFFFFFFFFFFFFFFFFFFFFFFFFFFFFFFFFFFFFFFFF AND PUSH1 0x5 PUSH1 0x1 SWAP1 SLOAD SWAP1 PUSH2 0x100 EXP SWAP1 DIV PUSH20 0xFFFFFFFFFFFFFFFFFFFFFFFFFFFFFFFFFFFFFFFF AND PUSH20 0xFFFFFFFFFFFFFFFFFFFFFFFFFFFFFFFFFFFFFFFF AND PUSH32 0x8BE0079C531659141344CD1FD0A4F28419497F9722A3DAAFE3B4186F6B6457E0 PUSH1 0x40 MLOAD PUSH1 0x40 MLOAD DUP1 SWAP2 SUB SWAP1 LOG3 DUP1 PUSH1 0x5 PUSH1 0x1 PUSH2 0x100 EXP DUP2 SLOAD DUP2 PUSH20 0xFFFFFFFFFFFFFFFFFFFFFFFFFFFFFFFFFFFFFFFF MUL NOT AND SWAP1 DUP4 PUSH20 0xFFFFFFFFFFFFFFFFFFFFFFFFFFFFFFFFFFFFFFFF AND MUL OR SWAP1 SSTORE POP POP JUMP JUMPDEST PUSH0 PUSH1 0x40 MLOAD SWAP1 POP SWAP1 JUMP JUMPDEST PUSH0 DUP1 REVERT JUMPDEST PUSH0 DUP1 REVERT JUMPDEST PUSH0 DUP1 REVERT JUMPDEST PUSH0 DUP1 REVERT JUMPDEST PUSH0 PUSH1 0x1F NOT PUSH1 0x1F DUP4 ADD AND SWAP1 POP SWAP2 SWAP1 POP JUMP JUMPDEST PUSH32 0x4E487B7100000000000000000000000000000000000000000000000000000000 PUSH0 MSTORE PUSH1 0x41 PUSH1 0x4 MSTORE PUSH1 0x24 PUSH0 REVERT JUMPDEST PUSH3 0x483 DUP3 PUSH3 0x43B JUMP JUMPDEST DUP2 ADD DUP2 DUP2 LT PUSH8 0xFFFFFFFFFFFFFFFF DUP3 GT OR ISZERO PUSH3 0x4A5 JUMPI PUSH3 0x4A4 PUSH3 0x44B JUMP JUMPDEST JUMPDEST DUP1 PUSH1 0x40 MSTORE POP POP POP JUMP JUMPDEST PUSH0 PUSH3 0x4B9 PUSH3 0x422 JUMP JUMPDEST SWAP1 POP PUSH3 0x4C7 DUP3 DUP3 PUSH3 0x478 JUMP JUMPDEST SWAP2 SWAP1 POP JUMP JUMPDEST PUSH0 PUSH8 0xFFFFFFFFFFFFFFFF DUP3 GT ISZERO PUSH3 0x4E9 JUMPI PUSH3 0x4E8 PUSH3 0x44B JUMP JUMPDEST JUMPDEST PUSH3 0x4F4 DUP3 PUSH3 0x43B JUMP JUMPDEST SWAP1 POP PUSH1 0x20 DUP2 ADD SWAP1 POP SWAP2 SWAP1 POP JUMP JUMPDEST PUSH0 JUMPDEST DUP4 DUP2 LT ISZERO PUSH3 0x520 JUMPI DUP1 DUP3 ADD MLOAD DUP2 DUP5 ADD MSTORE PUSH1 0x20 DUP2 ADD SWAP1 POP PUSH3 0x503 JUMP JUMPDEST PUSH0 DUP5 DUP5 ADD MSTORE POP POP POP POP JUMP JUMPDEST PUSH0 PUSH3 0x541 PUSH3 0x53B DUP5 PUSH3 0x4CC JUMP JUMPDEST PUSH3 0x4AE JUMP JUMPDEST SWAP1 POP DUP3 DUP2 MSTORE PUSH1 0x20 DUP2 ADD DUP5 DUP5 DUP5 ADD GT ISZERO PUSH3 0x560 JUMPI PUSH3 0x55F PUSH3 0x437 JUMP JUMPDEST JUMPDEST PUSH3 0x56D DUP5 DUP3 DUP6 PUSH3 0x501 JUMP JUMPDEST POP SWAP4 SWAP3 POP POP POP JUMP JUMPDEST PUSH0 DUP3 PUSH1 0x1F DUP4 ADD SLT PUSH3 0x58C JUMPI PUSH3 0x58B PUSH3 0x433 JUMP JUMPDEST JUMPDEST DUP2 MLOAD PUSH3 0x59E DUP5 DUP3 PUSH1 0x20 DUP7 ADD PUSH3 0x52B JUMP JUMPDEST SWAP2 POP POP SWAP3 SWAP2 POP POP JUMP JUMPDEST PUSH0 PUSH1 0xFF DUP3 AND SWAP1 POP SWAP2 SWAP1 POP JUMP JUMPDEST PUSH3 0x5BE DUP2 PUSH3 0x5A7 JUMP JUMPDEST DUP2 EQ PUSH3 0x5C9 JUMPI PUSH0 DUP1 REVERT JUMPDEST POP JUMP JUMPDEST PUSH0 DUP2 MLOAD SWAP1 POP PUSH3 0x5DC DUP2 PUSH3 0x5B3 JUMP JUMPDEST SWAP3 SWAP2 POP POP JUMP JUMPDEST PUSH0 PUSH20 0xFFFFFFFFFFFFFFFFFFFFFFFFFFFFFFFFFFFFFFFF DUP3 AND SWAP1 POP SWAP2 SWAP1 POP JUMP JUMPDEST PUSH0 PUSH3 0x60D DUP3 PUSH3 0x5E2 JUMP JUMPDEST SWAP1 POP SWAP2 SWAP1 POP JUMP JUMPDEST PUSH3 0x61F DUP2 PUSH3 0x601 JUMP JUMPDEST DUP2 EQ PUSH3 0x62A JUMPI PUSH0 DUP1 REVERT JUMPDEST POP JUMP JUMPDEST PUSH0 DUP2 MLOAD SWAP1 POP PUSH3 0x63D DUP2 PUSH3 0x614 JUMP JUMPDEST SWAP3 SWAP2 POP POP JUMP JUMPDEST PUSH0 DUP1 PUSH0 DUP1 PUSH1 0x80 DUP6 DUP8 SUB SLT ISZERO PUSH3 0x65E JUMPI PUSH3 0x65D PUSH3 0x42B JUMP JUMPDEST JUMPDEST PUSH0 DUP6 ADD MLOAD PUSH8 0xFFFFFFFFFFFFFFFF DUP2 GT ISZERO PUSH3 0x67E JUMPI PUSH3 0x67D PUSH3 0x42F JUMP JUMPDEST JUMPDEST PUSH3 0x68C DUP8 DUP3 DUP9 ADD PUSH3 0x575 JUMP JUMPDEST SWAP5 POP POP PUSH1 0x20 DUP6 ADD MLOAD PUSH8 0xFFFFFFFFFFFFFFFF DUP2 GT ISZERO PUSH3 0x6B0 JUMPI PUSH3 0x6AF PUSH3 0x42F JUMP JUMPDEST JUMPDEST PUSH3 0x6BE DUP8 DUP3 DUP9 ADD PUSH3 0x575 JUMP JUMPDEST SWAP4 POP POP PUSH1 0x40 PUSH3 0x6D1 DUP8 DUP3 DUP9 ADD PUSH3 0x5CC JUMP JUMPDEST SWAP3 POP POP PUSH1 0x60 PUSH3 0x6E4 DUP8 DUP3 DUP9 ADD PUSH3 0x62D JUMP JUMPDEST SWAP2 POP POP SWAP3 SWAP6 SWAP2 SWAP5 POP SWAP3 POP JUMP JUMPDEST PUSH0 DUP2 MLOAD SWAP1 POP SWAP2 SWAP1 POP JUMP JUMPDEST PUSH32 0x4E487B7100000000000000000000000000000000000000000000000000000000 PUSH0 MSTORE PUSH1 0x22 PUSH1 0x4 MSTORE PUSH1 0x24 PUSH0 REVERT JUMPDEST PUSH0 PUSH1 0x2 DUP3 DIV SWAP1 POP PUSH1 0x1 DUP3 AND DUP1 PUSH3 0x73F JUMPI PUSH1 0x7F DUP3 AND SWAP2 POP JUMPDEST PUSH1 0x20 DUP3 LT DUP2 SUB PUSH3 0x755 JUMPI PUSH3 0x754 PUSH3 0x6FA JUMP JUMPDEST JUMPDEST POP SWAP2 SWAP1 POP JUMP JUMPDEST PUSH0 DUP2 SWAP1 POP DUP2 PUSH0 MSTORE PUSH1 0x20 PUSH0 KECCAK256 SWAP1 POP SWAP2 SWAP1 POP JUMP JUMPDEST PUSH0 PUSH1 0x20 PUSH1 0x1F DUP4 ADD DIV SWAP1 POP SWAP2 SWAP1 POP JUMP JUMPDEST PUSH0 DUP3 DUP3 SHL SWAP1 POP SWAP3 SWAP2 POP POP JUMP JUMPDEST PUSH0 PUSH1 0x8 DUP4 MUL PUSH3 0x7B9 PUSH32 0xFFFFFFFFFFFFFFFFFFFFFFFFFFFFFFFFFFFFFFFFFFFFFFFFFFFFFFFFFFFFFFFF DUP3 PUSH3 0x77C JUMP JUMPDEST PUSH3 0x7C5 DUP7 DUP4 PUSH3 0x77C JUMP JUMPDEST SWAP6 POP DUP1 NOT DUP5 AND SWAP4 POP DUP1 DUP7 AND DUP5 OR SWAP3 POP POP POP SWAP4 SWAP3 POP POP POP JUMP JUMPDEST PUSH0 DUP2 SWAP1 POP SWAP2 SWAP1 POP JUMP JUMPDEST PUSH0 DUP2 SWAP1 POP SWAP2 SWAP1 POP JUMP JUMPDEST PUSH0 PUSH3 0x80F PUSH3 0x809 PUSH3 0x803 DUP5 PUSH3 0x7DD JUMP JUMPDEST PUSH3 0x7E6 JUMP JUMPDEST PUSH3 0x7DD JUMP JUMPDEST SWAP1 POP SWAP2 SWAP1 POP JUMP JUMPDEST PUSH0 DUP2 SWAP1 POP SWAP2 SWAP1 POP JUMP JUMPDEST PUSH3 0x82A DUP4 PUSH3 0x7EF JUMP JUMPDEST PUSH3 0x842 PUSH3 0x839 DUP3 PUSH3 0x816 JUMP JUMPDEST DUP5 DUP5 SLOAD PUSH3 0x788 JUMP JUMPDEST DUP3 SSTORE POP POP POP POP JUMP JUMPDEST PUSH0 SWAP1 JUMP JUMPDEST PUSH3 0x858 PUSH3 0x84A JUMP JUMPDEST PUSH3 0x865 DUP2 DUP5 DUP5 PUSH3 0x81F JUMP JUMPDEST POP POP POP JUMP JUMPDEST JUMPDEST DUP2 DUP2 LT ISZERO PUSH3 0x88C JUMPI PUSH3 0x880 PUSH0 DUP3 PUSH3 0x84E JUMP JUMPDEST PUSH1 0x1 DUP2 ADD SWAP1 POP PUSH3 0x86B JUMP JUMPDEST POP POP JUMP JUMPDEST PUSH1 0x1F DUP3 GT ISZERO PUSH3 0x8DB JUMPI PUSH3 0x8A5 DUP2 PUSH3 0x75B JUMP JUMPDEST PUSH3 0x8B0 DUP5 PUSH3 0x76D JUMP JUMPDEST DUP2 ADD PUSH1 0x20 DUP6 LT ISZERO PUSH3 0x8C0 JUMPI DUP2 SWAP1 POP JUMPDEST PUSH3 0x8D8 PUSH3 0x8CF DUP6 PUSH3 0x76D JUMP JUMPDEST DUP4 ADD DUP3 PUSH3 0x86A JUMP JUMPDEST POP POP JUMPDEST POP POP POP JUMP JUMPDEST PUSH0 DUP3 DUP3 SHR SWAP1 POP SWAP3 SWAP2 POP POP JUMP JUMPDEST PUSH0 PUSH3 0x8FD PUSH0 NOT DUP5 PUSH1 0x8 MUL PUSH3 0x8E0 JUMP JUMPDEST NOT DUP1 DUP4 AND SWAP2 POP POP SWAP3 SWAP2 POP POP JUMP JUMPDEST PUSH0 PUSH3 0x917 DUP4 DUP4 PUSH3 0x8EC JUMP JUMPDEST SWAP2 POP DUP3 PUSH1 0x2 MUL DUP3 OR SWAP1 POP SWAP3 SWAP2 POP POP JUMP JUMPDEST PUSH3 0x932 DUP3 PUSH3 0x6F0 JUMP JUMPDEST PUSH8 0xFFFFFFFFFFFFFFFF DUP2 GT ISZERO PUSH3 0x94E JUMPI PUSH3 0x94D PUSH3 0x44B JUMP JUMPDEST JUMPDEST PUSH3 0x95A DUP3 SLOAD PUSH3 0x727 JUMP JUMPDEST PUSH3 0x967 DUP3 DUP3 DUP6 PUSH3 0x890 JUMP JUMPDEST PUSH0 PUSH1 0x20 SWAP1 POP PUSH1 0x1F DUP4 GT PUSH1 0x1 DUP2 EQ PUSH3 0x99D JUMPI PUSH0 DUP5 ISZERO PUSH3 0x988 JUMPI DUP3 DUP8 ADD MLOAD SWAP1 POP JUMPDEST PUSH3 0x994 DUP6 DUP3 PUSH3 0x90A JUMP JUMPDEST DUP7 SSTORE POP PUSH3 0xA03 JUMP JUMPDEST PUSH1 0x1F NOT DUP5 AND PUSH3 0x9AD DUP7 PUSH3 0x75B JUMP JUMPDEST PUSH0 JUMPDEST DUP3 DUP2 LT ISZERO PUSH3 0x9D6 JUMPI DUP5 DUP10 ADD MLOAD DUP3 SSTORE PUSH1 0x1 DUP3 ADD SWAP2 POP PUSH1 0x20 DUP6 ADD SWAP5 POP PUSH1 0x20 DUP2 ADD SWAP1 POP PUSH3 0x9AF JUMP JUMPDEST DUP7 DUP4 LT ISZERO PUSH3 0x9F6 JUMPI DUP5 DUP10 ADD MLOAD PUSH3 0x9F2 PUSH1 0x1F DUP10 AND DUP3 PUSH3 0x8EC JUMP JUMPDEST DUP4 SSTORE POP JUMPDEST PUSH1 0x1 PUSH1 0x2 DUP9 MUL ADD DUP9 SSTORE POP POP POP JUMPDEST POP POP POP POP POP POP JUMP JUMPDEST PUSH0 DUP2 SWAP1 POP SWAP2 SWAP1 POP JUMP JUMPDEST PUSH3 0xA1F DUP2 PUSH3 0xA0B JUMP JUMPDEST DUP3 MSTORE POP POP JUMP JUMPDEST PUSH3 0xA30 DUP2 PUSH3 0x7DD JUMP JUMPDEST DUP3 MSTORE POP POP JUMP JUMPDEST PUSH3 0xA41 DUP2 PUSH3 0x601 JUMP JUMPDEST DUP3 MSTORE POP POP JUMP JUMPDEST PUSH0 PUSH1 0xA0 DUP3 ADD SWAP1 POP PUSH3 0xA5C PUSH0 DUP4 ADD DUP9 PUSH3 0xA14 JUMP JUMPDEST PUSH3 0xA6B PUSH1 0x20 DUP4 ADD DUP8 PUSH3 0xA14 JUMP JUMPDEST PUSH3 0xA7A PUSH1 0x40 DUP4 ADD DUP7 PUSH3 0xA14 JUMP JUMPDEST PUSH3 0xA89 PUSH1 0x60 DUP4 ADD DUP6 PUSH3 0xA25 JUMP JUMPDEST PUSH3 0xA98 PUSH1 0x80 DUP4 ADD DUP5 PUSH3 0xA36 JUMP JUMPDEST SWAP7 SWAP6 POP POP POP POP POP POP JUMP JUMPDEST PUSH0 DUP3 DUP3 MSTORE PUSH1 0x20 DUP3 ADD SWAP1 POP SWAP3 SWAP2 POP POP JUMP JUMPDEST PUSH32 0x4F776E61626C653A2063616C6C6572206973206E6F7420746865206F776E6572 PUSH0 DUP3 ADD MSTORE POP JUMP JUMPDEST PUSH0 PUSH3 0xAE8 PUSH1 0x20 DUP4 PUSH3 0xAA2 JUMP JUMPDEST SWAP2 POP PUSH3 0xAF5 DUP3 PUSH3 0xAB2 JUMP JUMPDEST PUSH1 0x20 DUP3 ADD SWAP1 POP SWAP2 SWAP1 POP JUMP JUMPDEST PUSH0 PUSH1 0x20 DUP3 ADD SWAP1 POP DUP2 DUP2 SUB PUSH0 DUP4 ADD MSTORE PUSH3 0xB19 DUP2 PUSH3 0xADA JUMP JUMPDEST SWAP1 POP SWAP2 SWAP1 POP JUMP JUMPDEST PUSH32 0x4F776E61626C653A206E6577206F776E657220697320746865207A65726F2061 PUSH0 DUP3 ADD MSTORE PUSH32 0x6464726573730000000000000000000000000000000000000000000000000000 PUSH1 0x20 DUP3 ADD MSTORE POP JUMP JUMPDEST PUSH0 PUSH3 0xB7C PUSH1 0x26 DUP4 PUSH3 0xAA2 JUMP JUMPDEST SWAP2 POP PUSH3 0xB89 DUP3 PUSH3 0xB20 JUMP JUMPDEST PUSH1 0x40 DUP3 ADD SWAP1 POP SWAP2 SWAP1 POP JUMP JUMPDEST PUSH0 PUSH1 0x20 DUP3 ADD SWAP1 POP DUP2 DUP2 SUB PUSH0 DUP4 ADD MSTORE PUSH3 0xBAD DUP2 PUSH3 0xB6E JUMP JUMPDEST SWAP1 POP SWAP2 SWAP1 POP JUMP JUMPDEST PUSH2 0x2324 DUP1 PUSH3 0xBC2 PUSH0 CODECOPY PUSH0 RETURN INVALID PUSH1 0x80 PUSH1 0x40 MSTORE CALLVALUE DUP1 ISZERO PUSH2 0xF JUMPI PUSH0 DUP1 REVERT JUMPDEST POP PUSH1 0x4 CALLDATASIZE LT PUSH2 0x135 JUMPI PUSH0 CALLDATALOAD PUSH1 0xE0 SHR DUP1 PUSH4 0x715018A6 GT PUSH2 0xB6 JUMPI DUP1 PUSH4 0xA0712D68 GT PUSH2 0x7A JUMPI DUP1 PUSH4 0xA0712D68 EQ PUSH2 0x353 JUMPI DUP1 PUSH4 0xA457C2D7 EQ PUSH2 0x383 JUMPI DUP1 PUSH4 0xA9059CBB EQ PUSH2 0x3B3 JUMPI DUP1 PUSH4 0xD505ACCF EQ PUSH2 0x3E3 JUMPI DUP1 PUSH4 0xDD62ED3E EQ PUSH2 0x3FF JUMPI DUP1 PUSH4 0xF2FDE38B EQ PUSH2 0x42F JUMPI PUSH2 0x135 JUMP JUMPDEST DUP1 PUSH4 0x715018A6 EQ PUSH2 0x2BF JUMPI DUP1 PUSH4 0x78160376 EQ PUSH2 0x2C9 JUMPI DUP1 PUSH4 0x7ECEBE00 EQ PUSH2 0x2E7 JUMPI DUP1 PUSH4 0x8DA5CB5B EQ PUSH2 0x317 JUMPI DUP1 PUSH4 0x95D89B41 EQ PUSH2 0x335 JUMPI PUSH2 0x135 JUMP JUMPDEST DUP1 PUSH4 0x313CE567 GT PUSH2 0xFD JUMPI DUP1 PUSH4 0x313CE567 EQ PUSH2 0x1F3 JUMPI DUP1 PUSH4 0x3644E515 EQ PUSH2 0x211 JUMPI DUP1 PUSH4 0x39509351 EQ PUSH2 0x22F JUMPI DUP1 PUSH4 0x40C10F19 EQ PUSH2 0x25F JUMPI DUP1 PUSH4 0x70A08231 EQ PUSH2 0x28F JUMPI PUSH2 0x135 JUMP JUMPDEST DUP1 PUSH4 0x6FDDE03 EQ PUSH2 0x139 JUMPI DUP1 PUSH4 0x95EA7B3 EQ PUSH2 0x157 JUMPI DUP1 PUSH4 0x18160DDD EQ PUSH2 0x187 JUMPI DUP1 PUSH4 0x23B872DD EQ PUSH2 0x1A5 JUMPI DUP1 PUSH4 0x30ADF81F EQ PUSH2 0x1D5 JUMPI JUMPDEST PUSH0 DUP1 REVERT JUMPDEST PUSH2 0x141 PUSH2 0x44B JUMP JUMPDEST PUSH1 0x40 MLOAD PUSH2 0x14E SWAP2 SWAP1 PUSH2 0x1786 JUMP JUMPDEST PUSH1 0x40 MLOAD DUP1 SWAP2 SUB SWAP1 RETURN JUMPDEST PUSH2 0x171 PUSH1 0x4 DUP1 CALLDATASIZE SUB DUP2 ADD SWAP1 PUSH2 0x16C SWAP2 SWAP1 PUSH2 0x1837 JUMP JUMPDEST PUSH2 0x4DB JUMP JUMPDEST PUSH1 0x40 MLOAD PUSH2 0x17E SWAP2 SWAP1 PUSH2 0x188F JUMP JUMPDEST PUSH1 0x40 MLOAD DUP1 SWAP2 SUB SWAP1 RETURN JUMPDEST PUSH2 0x18F PUSH2 0x4F8 JUMP JUMPDEST PUSH1 0x40 MLOAD PUSH2 0x19C SWAP2 SWAP1 PUSH2 0x18B7 JUMP JUMPDEST PUSH1 0x40 MLOAD DUP1 SWAP2 SUB SWAP1 RETURN JUMPDEST PUSH2 0x1BF PUSH1 0x4 DUP1 CALLDATASIZE SUB DUP2 ADD SWAP1 PUSH2 0x1BA SWAP2 SWAP1 PUSH2 0x18D0 JUMP JUMPDEST PUSH2 0x501 JUMP JUMPDEST PUSH1 0x40 MLOAD PUSH2 0x1CC SWAP2 SWAP1 PUSH2 0x188F JUMP JUMPDEST PUSH1 0x40 MLOAD DUP1 SWAP2 SUB SWAP1 RETURN JUMPDEST PUSH2 0x1DD PUSH2 0x5D5 JUMP JUMPDEST PUSH1 0x40 MLOAD PUSH2 0x1EA SWAP2 SWAP1 PUSH2 0x1938 JUMP JUMPDEST PUSH1 0x40 MLOAD DUP1 SWAP2 SUB SWAP1 RETURN JUMPDEST PUSH2 0x1FB PUSH2 0x5F9 JUMP JUMPDEST PUSH1 0x40 MLOAD PUSH2 0x208 SWAP2 SWAP1 PUSH2 0x196C JUMP JUMPDEST PUSH1 0x40 MLOAD DUP1 SWAP2 SUB SWAP1 RETURN JUMPDEST PUSH2 0x219 PUSH2 0x60E JUMP JUMPDEST PUSH1 0x40 MLOAD PUSH2 0x226 SWAP2 SWAP1 PUSH2 0x1938 JUMP JUMPDEST PUSH1 0x40 MLOAD DUP1 SWAP2 SUB SWAP1 RETURN JUMPDEST PUSH2 0x249 PUSH1 0x4 DUP1 CALLDATASIZE SUB DUP2 ADD SWAP1 PUSH2 0x244 SWAP2 SWAP1 PUSH2 0x1837 JUMP JUMPDEST PUSH2 0x614 JUMP JUMPDEST PUSH1 0x40 MLOAD PUSH2 0x256 SWAP2 SWAP1 PUSH2 0x188F JUMP JUMPDEST PUSH1 0x40 MLOAD DUP1 SWAP2 SUB SWAP1 RETURN JUMPDEST PUSH2 0x279 PUSH1 0x4 DUP1 CALLDATASIZE SUB DUP2 ADD SWAP1 PUSH2 0x274 SWAP2 SWAP1 PUSH2 0x1837 JUMP JUMPDEST PUSH2 0x6C2 JUMP JUMPDEST PUSH1 0x40 MLOAD PUSH2 0x286 SWAP2 SWAP1 PUSH2 0x188F JUMP JUMPDEST PUSH1 0x40 MLOAD DUP1 SWAP2 SUB SWAP1 RETURN JUMPDEST PUSH2 0x2A9 PUSH1 0x4 DUP1 CALLDATASIZE SUB DUP2 ADD SWAP1 PUSH2 0x2A4 SWAP2 SWAP1 PUSH2 0x1985 JUMP JUMPDEST PUSH2 0x76E JUMP JUMPDEST PUSH1 0x40 MLOAD PUSH2 0x2B6 SWAP2 SWAP1 PUSH2 0x18B7 JUMP JUMPDEST PUSH1 0x40 MLOAD DUP1 SWAP2 SUB SWAP1 RETURN JUMPDEST PUSH2 0x2C7 PUSH2 0x7B3 JUMP JUMPDEST STOP JUMPDEST PUSH2 0x2D1 PUSH2 0x909 JUMP JUMPDEST PUSH1 0x40 MLOAD PUSH2 0x2DE SWAP2 SWAP1 PUSH2 0x1A02 JUMP JUMPDEST PUSH1 0x40 MLOAD DUP1 SWAP2 SUB SWAP1 RETURN JUMPDEST PUSH2 0x301 PUSH1 0x4 DUP1 CALLDATASIZE SUB DUP2 ADD SWAP1 PUSH2 0x2FC SWAP2 SWAP1 PUSH2 0x1985 JUMP JUMPDEST PUSH2 0x942 JUMP JUMPDEST PUSH1 0x40 MLOAD PUSH2 0x30E SWAP2 SWAP1 PUSH2 0x18B7 JUMP JUMPDEST PUSH1 0x40 MLOAD DUP1 SWAP2 SUB SWAP1 RETURN JUMPDEST PUSH2 0x31F PUSH2 0x988 JUMP JUMPDEST PUSH1 0x40 MLOAD PUSH2 0x32C SWAP2 SWAP1 PUSH2 0x1A31 JUMP JUMPDEST PUSH1 0x40 MLOAD DUP1 SWAP2 SUB SWAP1 RETURN JUMPDEST PUSH2 0x33D PUSH2 0x9B1 JUMP JUMPDEST PUSH1 0x40 MLOAD PUSH2 0x34A SWAP2 SWAP1 PUSH2 0x1786 JUMP JUMPDEST PUSH1 0x40 MLOAD DUP1 SWAP2 SUB SWAP1 RETURN JUMPDEST PUSH2 0x36D PUSH1 0x4 DUP1 CALLDATASIZE SUB DUP2 ADD SWAP1 PUSH2 0x368 SWAP2 SWAP1 PUSH2 0x1A4A JUMP JUMPDEST PUSH2 0xA41 JUMP JUMPDEST PUSH1 0x40 MLOAD PUSH2 0x37A SWAP2 SWAP1 PUSH2 0x188F JUMP JUMPDEST PUSH1 0x40 MLOAD DUP1 SWAP2 SUB SWAP1 RETURN JUMPDEST PUSH2 0x39D PUSH1 0x4 DUP1 CALLDATASIZE SUB DUP2 ADD SWAP1 PUSH2 0x398 SWAP2 SWAP1 PUSH2 0x1837 JUMP JUMPDEST PUSH2 0xAF3 JUMP JUMPDEST PUSH1 0x40 MLOAD PUSH2 0x3AA SWAP2 SWAP1 PUSH2 0x188F JUMP JUMPDEST PUSH1 0x40 MLOAD DUP1 SWAP2 SUB SWAP1 RETURN JUMPDEST PUSH2 0x3CD PUSH1 0x4 DUP1 CALLDATASIZE SUB DUP2 ADD SWAP1 PUSH2 0x3C8 SWAP2 SWAP1 PUSH2 0x1837 JUMP JUMPDEST PUSH2 0xBBB JUMP JUMPDEST PUSH1 0x40 MLOAD PUSH2 0x3DA SWAP2 SWAP1 PUSH2 0x188F JUMP JUMPDEST PUSH1 0x40 MLOAD DUP1 SWAP2 SUB SWAP1 RETURN JUMPDEST PUSH2 0x3FD PUSH1 0x4 DUP1 CALLDATASIZE SUB DUP2 ADD SWAP1 PUSH2 0x3F8 SWAP2 SWAP1 PUSH2 0x1AC9 JUMP JUMPDEST PUSH2 0xBD8 JUMP JUMPDEST STOP JUMPDEST PUSH2 0x419 PUSH1 0x4 DUP1 CALLDATASIZE SUB DUP2 ADD SWAP1 PUSH2 0x414 SWAP2 SWAP1 PUSH2 0x1B66 JUMP JUMPDEST PUSH2 0xE65 JUMP JUMPDEST PUSH1 0x40 MLOAD PUSH2 0x426 SWAP2 SWAP1 PUSH2 0x18B7 JUMP JUMPDEST PUSH1 0x40 MLOAD DUP1 SWAP2 SUB SWAP1 RETURN JUMPDEST PUSH2 0x449 PUSH1 0x4 DUP1 CALLDATASIZE SUB DUP2 ADD SWAP1 PUSH2 0x444 SWAP2 SWAP1 PUSH2 0x1985 JUMP JUMPDEST PUSH2 0xEE7 JUMP JUMPDEST STOP JUMPDEST PUSH1 0x60 PUSH1 0x3 DUP1 SLOAD PUSH2 0x45A SWAP1 PUSH2 0x1BD1 JUMP JUMPDEST DUP1 PUSH1 0x1F ADD PUSH1 0x20 DUP1 SWAP2 DIV MUL PUSH1 0x20 ADD PUSH1 0x40 MLOAD SWAP1 DUP2 ADD PUSH1 0x40 MSTORE DUP1 SWAP3 SWAP2 SWAP1 DUP2 DUP2 MSTORE PUSH1 0x20 ADD DUP3 DUP1 SLOAD PUSH2 0x486 SWAP1 PUSH2 0x1BD1 JUMP JUMPDEST DUP1 ISZERO PUSH2 0x4D1 JUMPI DUP1 PUSH1 0x1F LT PUSH2 0x4A8 JUMPI PUSH2 0x100 DUP1 DUP4 SLOAD DIV MUL DUP4 MSTORE SWAP2 PUSH1 0x20 ADD SWAP2 PUSH2 0x4D1 JUMP JUMPDEST DUP3 ADD SWAP2 SWAP1 PUSH0 MSTORE PUSH1 0x20 PUSH0 KECCAK256 SWAP1 JUMPDEST DUP2 SLOAD DUP2 MSTORE SWAP1 PUSH1 0x1 ADD SWAP1 PUSH1 0x20 ADD DUP1 DUP4 GT PUSH2 0x4B4 JUMPI DUP3 SWAP1 SUB PUSH1 0x1F AND DUP3 ADD SWAP2 JUMPDEST POP POP POP POP POP SWAP1 POP SWAP1 JUMP JUMPDEST PUSH0 PUSH2 0x4EE PUSH2 0x4E7 PUSH2 0x10AC JUMP JUMPDEST DUP5 DUP5 PUSH2 0x10B3 JUMP JUMPDEST PUSH1 0x1 SWAP1 POP SWAP3 SWAP2 POP POP JUMP JUMPDEST PUSH0 PUSH1 0x2 SLOAD SWAP1 POP SWAP1 JUMP JUMPDEST PUSH0 PUSH2 0x50D DUP5 DUP5 DUP5 PUSH2 0x1276 JUMP JUMPDEST PUSH2 0x5CA DUP5 PUSH2 0x519 PUSH2 0x10AC JUMP JUMPDEST PUSH2 0x5C5 DUP6 PUSH1 0x40 MLOAD DUP1 PUSH1 0x60 ADD PUSH1 0x40 MSTORE DUP1 PUSH1 0x28 DUP2 MSTORE PUSH1 0x20 ADD PUSH2 0x22A2 PUSH1 0x28 SWAP2 CODECOPY PUSH1 0x1 PUSH0 DUP12 PUSH20 0xFFFFFFFFFFFFFFFFFFFFFFFFFFFFFFFFFFFFFFFF AND PUSH20 0xFFFFFFFFFFFFFFFFFFFFFFFFFFFFFFFFFFFFFFFF AND DUP2 MSTORE PUSH1 0x20 ADD SWAP1 DUP2 MSTORE PUSH1 0x20 ADD PUSH0 KECCAK256 PUSH0 PUSH2 0x57C PUSH2 0x10AC JUMP JUMPDEST PUSH20 0xFFFFFFFFFFFFFFFFFFFFFFFFFFFFFFFFFFFFFFFF AND PUSH20 0xFFFFFFFFFFFFFFFFFFFFFFFFFFFFFFFFFFFFFFFF AND DUP2 MSTORE PUSH1 0x20 ADD SWAP1 DUP2 MSTORE PUSH1 0x20 ADD PUSH0 KECCAK256 SLOAD PUSH2 0x14FF SWAP1 SWAP3 SWAP2 SWAP1 PUSH4 0xFFFFFFFF AND JUMP JUMPDEST PUSH2 0x10B3 JUMP JUMPDEST PUSH1 0x1 SWAP1 POP SWAP4 SWAP3 POP POP POP JUMP JUMPDEST PUSH32 0x6E71EDAE12B1B97F4D1F60370FEF10105FA2FAAE0126114A169C64845D6126C9 DUP2 JUMP JUMPDEST PUSH0 PUSH1 0x5 PUSH0 SWAP1 SLOAD SWAP1 PUSH2 0x100 EXP SWAP1 DIV PUSH1 0xFF AND SWAP1 POP SWAP1 JUMP JUMPDEST PUSH1 0x7 SLOAD DUP2 JUMP JUMPDEST PUSH0 PUSH2 0x6B8 PUSH2 0x620 PUSH2 0x10AC JUMP JUMPDEST DUP5 PUSH2 0x6B3 DUP6 PUSH1 0x1 PUSH0 PUSH2 0x630 PUSH2 0x10AC JUMP JUMPDEST PUSH20 0xFFFFFFFFFFFFFFFFFFFFFFFFFFFFFFFFFFFFFFFF AND PUSH20 0xFFFFFFFFFFFFFFFFFFFFFFFFFFFFFFFFFFFFFFFF AND DUP2 MSTORE PUSH1 0x20 ADD SWAP1 DUP2 MSTORE PUSH1 0x20 ADD PUSH0 KECCAK256 PUSH0 DUP10 PUSH20 0xFFFFFFFFFFFFFFFFFFFFFFFFFFFFFFFFFFFFFFFF AND PUSH20 0xFFFFFFFFFFFFFFFFFFFFFFFFFFFFFFFFFFFFFFFF AND DUP2 MSTORE PUSH1 0x20 ADD SWAP1 DUP2 MSTORE PUSH1 0x20 ADD PUSH0 KECCAK256 SLOAD PUSH2 0x1553 SWAP1 SWAP2 SWAP1 PUSH4 0xFFFFFFFF AND JUMP JUMPDEST PUSH2 0x10B3 JUMP JUMPDEST PUSH1 0x1 SWAP1 POP SWAP3 SWAP2 POP POP JUMP JUMPDEST PUSH0 PUSH2 0x6CB PUSH2 0x10AC JUMP JUMPDEST PUSH20 0xFFFFFFFFFFFFFFFFFFFFFFFFFFFFFFFFFFFFFFFF AND PUSH1 0x5 PUSH1 0x1 SWAP1 SLOAD SWAP1 PUSH2 0x100 EXP SWAP1 DIV PUSH20 0xFFFFFFFFFFFFFFFFFFFFFFFFFFFFFFFFFFFFFFFF AND PUSH20 0xFFFFFFFFFFFFFFFFFFFFFFFFFFFFFFFFFFFFFFFF AND EQ PUSH2 0x75A JUMPI PUSH1 0x40 MLOAD PUSH32 0x8C379A000000000000000000000000000000000000000000000000000000000 DUP2 MSTORE PUSH1 0x4 ADD PUSH2 0x751 SWAP1 PUSH2 0x1C4B JUMP JUMPDEST PUSH1 0x40 MLOAD DUP1 SWAP2 SUB SWAP1 REVERT JUMPDEST PUSH2 0x764 DUP4 DUP4 PUSH2 0x156B JUMP JUMPDEST PUSH1 0x1 SWAP1 POP SWAP3 SWAP2 POP POP JUMP JUMPDEST PUSH0 DUP1 PUSH0 DUP4 PUSH20 0xFFFFFFFFFFFFFFFFFFFFFFFFFFFFFFFFFFFFFFFF AND PUSH20 0xFFFFFFFFFFFFFFFFFFFFFFFFFFFFFFFFFFFFFFFF AND DUP2 MSTORE PUSH1 0x20 ADD SWAP1 DUP2 MSTORE PUSH1 0x20 ADD PUSH0 KECCAK256 SLOAD SWAP1 POP SWAP2 SWAP1 POP JUMP JUMPDEST PUSH2 0x7BB PUSH2 0x10AC JUMP JUMPDEST PUSH20 0xFFFFFFFFFFFFFFFFFFFFFFFFFFFFFFFFFFFFFFFF AND PUSH1 0x5 PUSH1 0x1 SWAP1 SLOAD SWAP1 PUSH2 0x100 EXP SWAP1 DIV PUSH20 0xFFFFFFFFFFFFFFFFFFFFFFFFFFFFFFFFFFFFFFFF AND PUSH20 0xFFFFFFFFFFFFFFFFFFFFFFFFFFFFFFFFFFFFFFFF AND EQ PUSH2 0x84A JUMPI PUSH1 0x40 MLOAD PUSH32 0x8C379A000000000000000000000000000000000000000000000000000000000 DUP2 MSTORE PUSH1 0x4 ADD PUSH2 0x841 SWAP1 PUSH2 0x1C4B JUMP JUMPDEST PUSH1 0x40 MLOAD DUP1 SWAP2 SUB SWAP1 REVERT JUMPDEST PUSH0 PUSH20 0xFFFFFFFFFFFFFFFFFFFFFFFFFFFFFFFFFFFFFFFF AND PUSH1 0x5 PUSH1 0x1 SWAP1 SLOAD SWAP1 PUSH2 0x100 EXP SWAP1 DIV PUSH20 0xFFFFFFFFFFFFFFFFFFFFFFFFFFFFFFFFFFFFFFFF AND PUSH20 0xFFFFFFFFFFFFFFFFFFFFFFFFFFFFFFFFFFFFFFFF AND PUSH32 0x8BE0079C531659141344CD1FD0A4F28419497F9722A3DAAFE3B4186F6B6457E0 PUSH1 0x40 MLOAD PUSH1 0x40 MLOAD DUP1 SWAP2 SUB SWAP1 LOG3 PUSH0 PUSH1 0x5 PUSH1 0x1 PUSH2 0x100 EXP DUP2 SLOAD DUP2 PUSH20 0xFFFFFFFFFFFFFFFFFFFFFFFFFFFFFFFFFFFFFFFF MUL NOT AND SWAP1 DUP4 PUSH20 0xFFFFFFFFFFFFFFFFFFFFFFFFFFFFFFFFFFFFFFFF AND MUL OR SWAP1 SSTORE POP JUMP JUMPDEST PUSH1 0x40 MLOAD DUP1 PUSH1 0x40 ADD PUSH1 0x40 MSTORE DUP1 PUSH1 0x1 DUP2 MSTORE PUSH1 0x20 ADD PUSH32 0x3100000000000000000000000000000000000000000000000000000000000000 DUP2 MSTORE POP DUP2 JUMP JUMPDEST PUSH0 PUSH1 0x6 PUSH0 DUP4 PUSH20 0xFFFFFFFFFFFFFFFFFFFFFFFFFFFFFFFFFFFFFFFF AND PUSH20 0xFFFFFFFFFFFFFFFFFFFFFFFFFFFFFFFFFFFFFFFF AND DUP2 MSTORE PUSH1 0x20 ADD SWAP1 DUP2 MSTORE PUSH1 0x20 ADD PUSH0 KECCAK256 SLOAD SWAP1 POP SWAP2 SWAP1 POP JUMP JUMPDEST PUSH0 PUSH1 0x5 PUSH1 0x1 SWAP1 SLOAD SWAP1 PUSH2 0x100 EXP SWAP1 DIV PUSH20 0xFFFFFFFFFFFFFFFFFFFFFFFFFFFFFFFFFFFFFFFF AND SWAP1 POP SWAP1 JUMP JUMPDEST PUSH1 0x60 PUSH1 0x4 DUP1 SLOAD PUSH2 0x9C0 SWAP1 PUSH2 0x1BD1 JUMP JUMPDEST DUP1 PUSH1 0x1F ADD PUSH1 0x20 DUP1 SWAP2 DIV MUL PUSH1 0x20 ADD PUSH1 0x40 MLOAD SWAP1 DUP2 ADD PUSH1 0x40 MSTORE DUP1 SWAP3 SWAP2 SWAP1 DUP2 DUP2 MSTORE PUSH1 0x20 ADD DUP3 DUP1 SLOAD PUSH2 0x9EC SWAP1 PUSH2 0x1BD1 JUMP JUMPDEST DUP1 ISZERO PUSH2 0xA37 JUMPI DUP1 PUSH1 0x1F LT PUSH2 0xA0E JUMPI PUSH2 0x100 DUP1 DUP4 SLOAD DIV MUL DUP4 MSTORE SWAP2 PUSH1 0x20 ADD SWAP2 PUSH2 0xA37 JUMP JUMPDEST DUP3 ADD SWAP2 SWAP1 PUSH0 MSTORE PUSH1 0x20 PUSH0 KECCAK256 SWAP1 JUMPDEST DUP2 SLOAD DUP2 MSTORE SWAP1 PUSH1 0x1 ADD SWAP1 PUSH1 0x20 ADD DUP1 DUP4 GT PUSH2 0xA1A JUMPI DUP3 SWAP1 SUB PUSH1 0x1F AND DUP3 ADD SWAP2 JUMPDEST POP POP POP POP POP SWAP1 POP SWAP1 JUMP JUMPDEST PUSH0 PUSH2 0xA4A PUSH2 0x10AC JUMP JUMPDEST PUSH20 0xFFFFFFFFFFFFFFFFFFFFFFFFFFFFFFFFFFFFFFFF AND PUSH1 0x5 PUSH1 0x1 SWAP1 SLOAD SWAP1 PUSH2 0x100 EXP SWAP1 DIV PUSH20 0xFFFFFFFFFFFFFFFFFFFFFFFFFFFFFFFFFFFFFFFF AND PUSH20 0xFFFFFFFFFFFFFFFFFFFFFFFFFFFFFFFFFFFFFFFF AND EQ PUSH2 0xAD9 JUMPI PUSH1 0x40 MLOAD PUSH32 0x8C379A000000000000000000000000000000000000000000000000000000000 DUP2 MSTORE PUSH1 0x4 ADD PUSH2 0xAD0 SWAP1 PUSH2 0x1C4B JUMP JUMPDEST PUSH1 0x40 MLOAD DUP1 SWAP2 SUB SWAP1 REVERT JUMPDEST PUSH2 0xAEA PUSH2 0xAE4 PUSH2 0x10AC JUMP JUMPDEST DUP4 PUSH2 0x156B JUMP JUMPDEST PUSH1 0x1 SWAP1 POP SWAP2 SWAP1 POP JUMP JUMPDEST PUSH0 PUSH2 0xBB1 PUSH2 0xAFF PUSH2 0x10AC JUMP JUMPDEST DUP5 PUSH2 0xBAC DUP6 PUSH1 0x40 MLOAD DUP1 PUSH1 0x60 ADD PUSH1 0x40 MSTORE DUP1 PUSH1 0x25 DUP2 MSTORE PUSH1 0x20 ADD PUSH2 0x22CA PUSH1 0x25 SWAP2 CODECOPY PUSH1 0x1 PUSH0 PUSH2 0xB28 PUSH2 0x10AC JUMP JUMPDEST PUSH20 0xFFFFFFFFFFFFFFFFFFFFFFFFFFFFFFFFFFFFFFFF AND PUSH20 0xFFFFFFFFFFFFFFFFFFFFFFFFFFFFFFFFFFFFFFFF AND DUP2 MSTORE PUSH1 0x20 ADD SWAP1 DUP2 MSTORE PUSH1 0x20 ADD PUSH0 KECCAK256 PUSH0 DUP11 PUSH20 0xFFFFFFFFFFFFFFFFFFFFFFFFFFFFFFFFFFFFFFFF AND PUSH20 0xFFFFFFFFFFFFFFFFFFFFFFFFFFFFFFFFFFFFFFFF AND DUP2 MSTORE PUSH1 0x20 ADD SWAP1 DUP2 MSTORE PUSH1 0x20 ADD PUSH0 KECCAK256 SLOAD PUSH2 0x14FF SWAP1 SWAP3 SWAP2 SWAP1 PUSH4 0xFFFFFFFF AND JUMP JUMPDEST PUSH2 0x10B3 JUMP JUMPDEST PUSH1 0x1 SWAP1 POP SWAP3 SWAP2 POP POP JUMP JUMPDEST PUSH0 PUSH2 0xBCE PUSH2 0xBC7 PUSH2 0x10AC JUMP JUMPDEST DUP5 DUP5 PUSH2 0x1276 JUMP JUMPDEST PUSH1 0x1 SWAP1 POP SWAP3 SWAP2 POP POP JUMP JUMPDEST PUSH0 PUSH20 0xFFFFFFFFFFFFFFFFFFFFFFFFFFFFFFFFFFFFFFFF AND DUP8 PUSH20 0xFFFFFFFFFFFFFFFFFFFFFFFFFFFFFFFFFFFFFFFF AND SUB PUSH2 0xC46 JUMPI PUSH1 0x40 MLOAD PUSH32 0x8C379A000000000000000000000000000000000000000000000000000000000 DUP2 MSTORE PUSH1 0x4 ADD PUSH2 0xC3D SWAP1 PUSH2 0x1CB3 JUMP JUMPDEST PUSH1 0x40 MLOAD DUP1 SWAP2 SUB SWAP1 REVERT JUMPDEST DUP4 TIMESTAMP GT ISZERO PUSH2 0xC89 JUMPI PUSH1 0x40 MLOAD PUSH32 0x8C379A000000000000000000000000000000000000000000000000000000000 DUP2 MSTORE PUSH1 0x4 ADD PUSH2 0xC80 SWAP1 PUSH2 0x1D1B JUMP JUMPDEST PUSH1 0x40 MLOAD DUP1 SWAP2 SUB SWAP1 REVERT JUMPDEST PUSH0 PUSH1 0x6 PUSH0 DUP10 PUSH20 0xFFFFFFFFFFFFFFFFFFFFFFFFFFFFFFFFFFFFFFFF AND PUSH20 0xFFFFFFFFFFFFFFFFFFFFFFFFFFFFFFFFFFFFFFFF AND DUP2 MSTORE PUSH1 0x20 ADD SWAP1 DUP2 MSTORE PUSH1 0x20 ADD PUSH0 KECCAK256 SLOAD SWAP1 POP PUSH0 PUSH1 0x7 SLOAD PUSH32 0x6E71EDAE12B1B97F4D1F60370FEF10105FA2FAAE0126114A169C64845D6126C9 DUP11 DUP11 DUP11 DUP7 DUP12 PUSH1 0x40 MLOAD PUSH1 0x20 ADD PUSH2 0xD09 SWAP7 SWAP6 SWAP5 SWAP4 SWAP3 SWAP2 SWAP1 PUSH2 0x1D39 JUMP JUMPDEST PUSH1 0x40 MLOAD PUSH1 0x20 DUP2 DUP4 SUB SUB DUP2 MSTORE SWAP1 PUSH1 0x40 MSTORE DUP1 MLOAD SWAP1 PUSH1 0x20 ADD KECCAK256 PUSH1 0x40 MLOAD PUSH1 0x20 ADD PUSH2 0xD30 SWAP3 SWAP2 SWAP1 PUSH2 0x1E0C JUMP JUMPDEST PUSH1 0x40 MLOAD PUSH1 0x20 DUP2 DUP4 SUB SUB DUP2 MSTORE SWAP1 PUSH1 0x40 MSTORE DUP1 MLOAD SWAP1 PUSH1 0x20 ADD KECCAK256 SWAP1 POP PUSH1 0x1 DUP2 DUP7 DUP7 DUP7 PUSH1 0x40 MLOAD PUSH0 DUP2 MSTORE PUSH1 0x20 ADD PUSH1 0x40 MSTORE PUSH1 0x40 MLOAD PUSH2 0xD6A SWAP5 SWAP4 SWAP3 SWAP2 SWAP1 PUSH2 0x1E42 JUMP JUMPDEST PUSH1 0x20 PUSH1 0x40 MLOAD PUSH1 0x20 DUP2 SUB SWAP1 DUP1 DUP5 SUB SWAP1 DUP6 GAS STATICCALL ISZERO DUP1 ISZERO PUSH2 0xD8A JUMPI RETURNDATASIZE PUSH0 DUP1 RETURNDATACOPY RETURNDATASIZE PUSH0 REVERT JUMPDEST POP POP POP PUSH1 0x20 PUSH1 0x40 MLOAD SUB MLOAD PUSH20 0xFFFFFFFFFFFFFFFFFFFFFFFFFFFFFFFFFFFFFFFF AND DUP10 PUSH20 0xFFFFFFFFFFFFFFFFFFFFFFFFFFFFFFFFFFFFFFFF AND EQ PUSH2 0xE01 JUMPI PUSH1 0x40 MLOAD PUSH32 0x8C379A000000000000000000000000000000000000000000000000000000000 DUP2 MSTORE PUSH1 0x4 ADD PUSH2 0xDF8 SWAP1 PUSH2 0x1ECF JUMP JUMPDEST PUSH1 0x40 MLOAD DUP1 SWAP2 SUB SWAP1 REVERT JUMPDEST PUSH1 0x1 DUP3 PUSH2 0xE0E SWAP2 SWAP1 PUSH2 0x1F1A JUMP JUMPDEST PUSH1 0x6 PUSH0 DUP12 PUSH20 0xFFFFFFFFFFFFFFFFFFFFFFFFFFFFFFFFFFFFFFFF AND PUSH20 0xFFFFFFFFFFFFFFFFFFFFFFFFFFFFFFFFFFFFFFFF AND DUP2 MSTORE PUSH1 0x20 ADD SWAP1 DUP2 MSTORE PUSH1 0x20 ADD PUSH0 KECCAK256 DUP2 SWAP1 SSTORE POP PUSH2 0xE5A DUP10 DUP10 DUP10 PUSH2 0x10B3 JUMP JUMPDEST POP POP POP POP POP POP POP POP POP JUMP JUMPDEST PUSH0 PUSH1 0x1 PUSH0 DUP5 PUSH20 0xFFFFFFFFFFFFFFFFFFFFFFFFFFFFFFFFFFFFFFFF AND PUSH20 0xFFFFFFFFFFFFFFFFFFFFFFFFFFFFFFFFFFFFFFFF AND DUP2 MSTORE PUSH1 0x20 ADD SWAP1 DUP2 MSTORE PUSH1 0x20 ADD PUSH0 KECCAK256 PUSH0 DUP4 PUSH20 0xFFFFFFFFFFFFFFFFFFFFFFFFFFFFFFFFFFFFFFFF AND PUSH20 0xFFFFFFFFFFFFFFFFFFFFFFFFFFFFFFFFFFFFFFFF AND DUP2 MSTORE PUSH1 0x20 ADD SWAP1 DUP2 MSTORE PUSH1 0x20 ADD PUSH0 KECCAK256 SLOAD SWAP1 POP SWAP3 SWAP2 POP POP JUMP JUMPDEST PUSH2 0xEEF PUSH2 0x10AC JUMP JUMPDEST PUSH20 0xFFFFFFFFFFFFFFFFFFFFFFFFFFFFFFFFFFFFFFFF AND PUSH1 0x5 PUSH1 0x1 SWAP1 SLOAD SWAP1 PUSH2 0x100 EXP SWAP1 DIV PUSH20 0xFFFFFFFFFFFFFFFFFFFFFFFFFFFFFFFFFFFFFFFF AND PUSH20 0xFFFFFFFFFFFFFFFFFFFFFFFFFFFFFFFFFFFFFFFF AND EQ PUSH2 0xF7E JUMPI PUSH1 0x40 MLOAD PUSH32 0x8C379A000000000000000000000000000000000000000000000000000000000 DUP2 MSTORE PUSH1 0x4 ADD PUSH2 0xF75 SWAP1 PUSH2 0x1C4B JUMP JUMPDEST PUSH1 0x40 MLOAD DUP1 SWAP2 SUB SWAP1 REVERT JUMPDEST PUSH0 PUSH20 0xFFFFFFFFFFFFFFFFFFFFFFFFFFFFFFFFFFFFFFFF AND DUP2 PUSH20 0xFFFFFFFFFFFFFFFFFFFFFFFFFFFFFFFFFFFFFFFF AND SUB PUSH2 0xFEC JUMPI PUSH1 0x40 MLOAD PUSH32 0x8C379A000000000000000000000000000000000000000000000000000000000 DUP2 MSTORE PUSH1 0x4 ADD PUSH2 0xFE3 SWAP1 PUSH2 0x1FBD JUMP JUMPDEST PUSH1 0x40 MLOAD DUP1 SWAP2 SUB SWAP1 REVERT JUMPDEST DUP1 PUSH20 0xFFFFFFFFFFFFFFFFFFFFFFFFFFFFFFFFFFFFFFFF AND PUSH1 0x5 PUSH1 0x1 SWAP1 SLOAD SWAP1 PUSH2 0x100 EXP SWAP1 DIV PUSH20 0xFFFFFFFFFFFFFFFFFFFFFFFFFFFFFFFFFFFFFFFF AND PUSH20 0xFFFFFFFFFFFFFFFFFFFFFFFFFFFFFFFFFFFFFFFF AND PUSH32 0x8BE0079C531659141344CD1FD0A4F28419497F9722A3DAAFE3B4186F6B6457E0 PUSH1 0x40 MLOAD PUSH1 0x40 MLOAD DUP1 SWAP2 SUB SWAP1 LOG3 DUP1 PUSH1 0x5 PUSH1 0x1 PUSH2 0x100 EXP DUP2 SLOAD DUP2 PUSH20 0xFFFFFFFFFFFFFFFFFFFFFFFFFFFFFFFFFFFFFFFF MUL NOT AND SWAP1 DUP4 PUSH20 0xFFFFFFFFFFFFFFFFFFFFFFFFFFFFFFFFFFFFFFFF AND MUL OR SWAP1 SSTORE POP POP JUMP JUMPDEST PUSH0 CALLER SWAP1 POP SWAP1 JUMP JUMPDEST PUSH0 PUSH20 0xFFFFFFFFFFFFFFFFFFFFFFFFFFFFFFFFFFFFFFFF AND DUP4 PUSH20 0xFFFFFFFFFFFFFFFFFFFFFFFFFFFFFFFFFFFFFFFF AND SUB PUSH2 0x1121 JUMPI PUSH1 0x40 MLOAD PUSH32 0x8C379A000000000000000000000000000000000000000000000000000000000 DUP2 MSTORE PUSH1 0x4 ADD PUSH2 0x1118 SWAP1 PUSH2 0x204B JUMP JUMPDEST PUSH1 0x40 MLOAD DUP1 SWAP2 SUB SWAP1 REVERT JUMPDEST PUSH0 PUSH20 0xFFFFFFFFFFFFFFFFFFFFFFFFFFFFFFFFFFFFFFFF AND DUP3 PUSH20 0xFFFFFFFFFFFFFFFFFFFFFFFFFFFFFFFFFFFFFFFF AND SUB PUSH2 0x118F JUMPI PUSH1 0x40 MLOAD PUSH32 0x8C379A000000000000000000000000000000000000000000000000000000000 DUP2 MSTORE PUSH1 0x4 ADD PUSH2 0x1186 SWAP1 PUSH2 0x20D9 JUMP JUMPDEST PUSH1 0x40 MLOAD DUP1 SWAP2 SUB SWAP1 REVERT JUMPDEST DUP1 PUSH1 0x1 PUSH0 DUP6 PUSH20 0xFFFFFFFFFFFFFFFFFFFFFFFFFFFFFFFFFFFFFFFF AND PUSH20 0xFFFFFFFFFFFFFFFFFFFFFFFFFFFFFFFFFFFFFFFF AND DUP2 MSTORE PUSH1 0x20 ADD SWAP1 DUP2 MSTORE PUSH1 0x20 ADD PUSH0 KECCAK256 PUSH0 DUP5 PUSH20 0xFFFFFFFFFFFFFFFFFFFFFFFFFFFFFFFFFFFFFFFF AND PUSH20 0xFFFFFFFFFFFFFFFFFFFFFFFFFFFFFFFFFFFFFFFF AND DUP2 MSTORE PUSH1 0x20 ADD SWAP1 DUP2 MSTORE PUSH1 0x20 ADD PUSH0 KECCAK256 DUP2 SWAP1 SSTORE POP DUP2 PUSH20 0xFFFFFFFFFFFFFFFFFFFFFFFFFFFFFFFFFFFFFFFF AND DUP4 PUSH20 0xFFFFFFFFFFFFFFFFFFFFFFFFFFFFFFFFFFFFFFFF AND PUSH32 0x8C5BE1E5EBEC7D5BD14F71427D1E84F3DD0314C0F7B2291E5B200AC8C7C3B925 DUP4 PUSH1 0x40 MLOAD PUSH2 0x1269 SWAP2 SWAP1 PUSH2 0x18B7 JUMP JUMPDEST PUSH1 0x40 MLOAD DUP1 SWAP2 SUB SWAP1 LOG3 POP POP POP JUMP JUMPDEST PUSH0 PUSH20 0xFFFFFFFFFFFFFFFFFFFFFFFFFFFFFFFFFFFFFFFF AND DUP4 PUSH20 0xFFFFFFFFFFFFFFFFFFFFFFFFFFFFFFFFFFFFFFFF AND SUB PUSH2 0x12E4 JUMPI PUSH1 0x40 MLOAD PUSH32 0x8C379A000000000000000000000000000000000000000000000000000000000 DUP2 MSTORE PUSH1 0x4 ADD PUSH2 0x12DB SWAP1 PUSH2 0x2167 JUMP JUMPDEST PUSH1 0x40 MLOAD DUP1 SWAP2 SUB SWAP1 REVERT JUMPDEST PUSH0 PUSH20 0xFFFFFFFFFFFFFFFFFFFFFFFFFFFFFFFFFFFFFFFF AND DUP3 PUSH20 0xFFFFFFFFFFFFFFFFFFFFFFFFFFFFFFFFFFFFFFFF AND SUB PUSH2 0x1352 JUMPI PUSH1 0x40 MLOAD PUSH32 0x8C379A000000000000000000000000000000000000000000000000000000000 DUP2 MSTORE PUSH1 0x4 ADD PUSH2 0x1349 SWAP1 PUSH2 0x21F5 JUMP JUMPDEST PUSH1 0x40 MLOAD DUP1 SWAP2 SUB SWAP1 REVERT JUMPDEST PUSH2 0x135D DUP4 DUP4 DUP4 PUSH2 0x16F7 JUMP JUMPDEST PUSH2 0x13C6 DUP2 PUSH1 0x40 MLOAD DUP1 PUSH1 0x60 ADD PUSH1 0x40 MSTORE DUP1 PUSH1 0x26 DUP2 MSTORE PUSH1 0x20 ADD PUSH2 0x227C PUSH1 0x26 SWAP2 CODECOPY PUSH0 DUP1 DUP8 PUSH20 0xFFFFFFFFFFFFFFFFFFFFFFFFFFFFFFFFFFFFFFFF AND PUSH20 0xFFFFFFFFFFFFFFFFFFFFFFFFFFFFFFFFFFFFFFFF AND DUP2 MSTORE PUSH1 0x20 ADD SWAP1 DUP2 MSTORE PUSH1 0x20 ADD PUSH0 KECCAK256 SLOAD PUSH2 0x14FF SWAP1 SWAP3 SWAP2 SWAP1 PUSH4 0xFFFFFFFF AND JUMP JUMPDEST PUSH0 DUP1 DUP6 PUSH20 0xFFFFFFFFFFFFFFFFFFFFFFFFFFFFFFFFFFFFFFFF AND PUSH20 0xFFFFFFFFFFFFFFFFFFFFFFFFFFFFFFFFFFFFFFFF AND DUP2 MSTORE PUSH1 0x20 ADD SWAP1 DUP2 MSTORE PUSH1 0x20 ADD PUSH0 KECCAK256 DUP2 SWAP1 SSTORE POP PUSH2 0x1455 DUP2 PUSH0 DUP1 DUP6 PUSH20 0xFFFFFFFFFFFFFFFFFFFFFFFFFFFFFFFFFFFFFFFF AND PUSH20 0xFFFFFFFFFFFFFFFFFFFFFFFFFFFFFFFFFFFFFFFF AND DUP2 MSTORE PUSH1 0x20 ADD SWAP1 DUP2 MSTORE PUSH1 0x20 ADD PUSH0 KECCAK256 SLOAD PUSH2 0x1553 SWAP1 SWAP2 SWAP1 PUSH4 0xFFFFFFFF AND JUMP JUMPDEST PUSH0 DUP1 DUP5 PUSH20 0xFFFFFFFFFFFFFFFFFFFFFFFFFFFFFFFFFFFFFFFF AND PUSH20 0xFFFFFFFFFFFFFFFFFFFFFFFFFFFFFFFFFFFFFFFF AND DUP2 MSTORE PUSH1 0x20 ADD SWAP1 DUP2 MSTORE PUSH1 0x20 ADD PUSH0 KECCAK256 DUP2 SWAP1 SSTORE POP DUP2 PUSH20 0xFFFFFFFFFFFFFFFFFFFFFFFFFFFFFFFFFFFFFFFF AND DUP4 PUSH20 0xFFFFFFFFFFFFFFFFFFFFFFFFFFFFFFFFFFFFFFFF AND PUSH32 0xDDF252AD1BE2C89B69C2B068FC378DAA952BA7F163C4A11628F55A4DF523B3EF DUP4 PUSH1 0x40 MLOAD PUSH2 0x14F2 SWAP2 SWAP1 PUSH2 0x18B7 JUMP JUMPDEST PUSH1 0x40 MLOAD DUP1 SWAP2 SUB SWAP1 LOG3 POP POP POP JUMP JUMPDEST PUSH0 DUP4 DUP4 DUP6 SUB SWAP2 POP DUP2 GT ISZERO DUP3 SWAP1 PUSH2 0x154B JUMPI PUSH1 0x40 MLOAD PUSH32 0x8C379A000000000000000000000000000000000000000000000000000000000 DUP2 MSTORE PUSH1 0x4 ADD PUSH2 0x1542 SWAP2 SWAP1 PUSH2 0x1786 JUMP JUMPDEST PUSH1 0x40 MLOAD DUP1 SWAP2 SUB SWAP1 REVERT JUMPDEST POP SWAP4 SWAP3 POP POP POP JUMP JUMPDEST PUSH0 DUP3 DUP3 DUP5 ADD SWAP2 POP DUP2 LT ISZERO PUSH2 0x1565 JUMPI PUSH0 DUP1 REVERT JUMPDEST SWAP3 SWAP2 POP POP JUMP JUMPDEST PUSH0 PUSH20 0xFFFFFFFFFFFFFFFFFFFFFFFFFFFFFFFFFFFFFFFF AND DUP3 PUSH20 0xFFFFFFFFFFFFFFFFFFFFFFFFFFFFFFFFFFFFFFFF AND SUB PUSH2 0x15D9 JUMPI PUSH1 0x40 MLOAD PUSH32 0x8C379A000000000000000000000000000000000000000000000000000000000 DUP2 MSTORE PUSH1 0x4 ADD PUSH2 0x15D0 SWAP1 PUSH2 0x225D JUMP JUMPDEST PUSH1 0x40 MLOAD DUP1 SWAP2 SUB SWAP1 REVERT JUMPDEST PUSH2 0x15E4 PUSH0 DUP4 DUP4 PUSH2 0x16F7 JUMP JUMPDEST PUSH2 0x15F9 DUP2 PUSH1 0x2 SLOAD PUSH2 0x1553 SWAP1 SWAP2 SWAP1 PUSH4 0xFFFFFFFF AND JUMP JUMPDEST PUSH1 0x2 DUP2 SWAP1 SSTORE POP PUSH2 0x164E DUP2 PUSH0 DUP1 DUP6 PUSH20 0xFFFFFFFFFFFFFFFFFFFFFFFFFFFFFFFFFFFFFFFF AND PUSH20 0xFFFFFFFFFFFFFFFFFFFFFFFFFFFFFFFFFFFFFFFF AND DUP2 MSTORE PUSH1 0x20 ADD SWAP1 DUP2 MSTORE PUSH1 0x20 ADD PUSH0 KECCAK256 SLOAD PUSH2 0x1553 SWAP1 SWAP2 SWAP1 PUSH4 0xFFFFFFFF AND JUMP JUMPDEST PUSH0 DUP1 DUP5 PUSH20 0xFFFFFFFFFFFFFFFFFFFFFFFFFFFFFFFFFFFFFFFF AND PUSH20 0xFFFFFFFFFFFFFFFFFFFFFFFFFFFFFFFFFFFFFFFF AND DUP2 MSTORE PUSH1 0x20 ADD SWAP1 DUP2 MSTORE PUSH1 0x20 ADD PUSH0 KECCAK256 DUP2 SWAP1 SSTORE POP DUP2 PUSH20 0xFFFFFFFFFFFFFFFFFFFFFFFFFFFFFFFFFFFFFFFF AND PUSH0 PUSH20 0xFFFFFFFFFFFFFFFFFFFFFFFFFFFFFFFFFFFFFFFF AND PUSH32 0xDDF252AD1BE2C89B69C2B068FC378DAA952BA7F163C4A11628F55A4DF523B3EF DUP4 PUSH1 0x40 MLOAD PUSH2 0x16EB SWAP2 SWAP1 PUSH2 0x18B7 JUMP JUMPDEST PUSH1 0x40 MLOAD DUP1 SWAP2 SUB SWAP1 LOG3 POP POP JUMP JUMPDEST POP POP POP JUMP JUMPDEST PUSH0 DUP2 MLOAD SWAP1 POP SWAP2 SWAP1 POP JUMP JUMPDEST PUSH0 DUP3 DUP3 MSTORE PUSH1 0x20 DUP3 ADD SWAP1 POP SWAP3 SWAP2 POP POP JUMP JUMPDEST PUSH0 JUMPDEST DUP4 DUP2 LT ISZERO PUSH2 0x1733 JUMPI DUP1 DUP3 ADD MLOAD DUP2 DUP5 ADD MSTORE PUSH1 0x20 DUP2 ADD SWAP1 POP PUSH2 0x1718 JUMP JUMPDEST PUSH0 DUP5 DUP5 ADD MSTORE POP POP POP POP JUMP JUMPDEST PUSH0 PUSH1 0x1F NOT PUSH1 0x1F DUP4 ADD AND SWAP1 POP SWAP2 SWAP1 POP JUMP JUMPDEST PUSH0 PUSH2 0x1758 DUP3 PUSH2 0x16FC JUMP JUMPDEST PUSH2 0x1762 DUP2 DUP6 PUSH2 0x1706 JUMP JUMPDEST SWAP4 POP PUSH2 0x1772 DUP2 DUP6 PUSH1 0x20 DUP7 ADD PUSH2 0x1716 JUMP JUMPDEST PUSH2 0x177B DUP2 PUSH2 0x173E JUMP JUMPDEST DUP5 ADD SWAP2 POP POP SWAP3 SWAP2 POP POP JUMP JUMPDEST PUSH0 PUSH1 0x20 DUP3 ADD SWAP1 POP DUP2 DUP2 SUB PUSH0 DUP4 ADD MSTORE PUSH2 0x179E DUP2 DUP5 PUSH2 0x174E JUMP JUMPDEST SWAP1 POP SWAP3 SWAP2 POP POP JUMP JUMPDEST PUSH0 DUP1 REVERT JUMPDEST PUSH0 PUSH20 0xFFFFFFFFFFFFFFFFFFFFFFFFFFFFFFFFFFFFFFFF DUP3 AND SWAP1 POP SWAP2 SWAP1 POP JUMP JUMPDEST PUSH0 PUSH2 0x17D3 DUP3 PUSH2 0x17AA JUMP JUMPDEST SWAP1 POP SWAP2 SWAP1 POP JUMP JUMPDEST PUSH2 0x17E3 DUP2 PUSH2 0x17C9 JUMP JUMPDEST DUP2 EQ PUSH2 0x17ED JUMPI PUSH0 DUP1 REVERT JUMPDEST POP JUMP JUMPDEST PUSH0 DUP2 CALLDATALOAD SWAP1 POP PUSH2 0x17FE DUP2 PUSH2 0x17DA JUMP JUMPDEST SWAP3 SWAP2 POP POP JUMP JUMPDEST PUSH0 DUP2 SWAP1 POP SWAP2 SWAP1 POP JUMP JUMPDEST PUSH2 0x1816 DUP2 PUSH2 0x1804 JUMP JUMPDEST DUP2 EQ PUSH2 0x1820 JUMPI PUSH0 DUP1 REVERT JUMPDEST POP JUMP JUMPDEST PUSH0 DUP2 CALLDATALOAD SWAP1 POP PUSH2 0x1831 DUP2 PUSH2 0x180D JUMP JUMPDEST SWAP3 SWAP2 POP POP JUMP JUMPDEST PUSH0 DUP1 PUSH1 0x40 DUP4 DUP6 SUB SLT ISZERO PUSH2 0x184D JUMPI PUSH2 0x184C PUSH2 0x17A6 JUMP JUMPDEST JUMPDEST PUSH0 PUSH2 0x185A DUP6 DUP3 DUP7 ADD PUSH2 0x17F0 JUMP JUMPDEST SWAP3 POP POP PUSH1 0x20 PUSH2 0x186B DUP6 DUP3 DUP7 ADD PUSH2 0x1823 JUMP JUMPDEST SWAP2 POP POP SWAP3 POP SWAP3 SWAP1 POP JUMP JUMPDEST PUSH0 DUP2 ISZERO ISZERO SWAP1 POP SWAP2 SWAP1 POP JUMP JUMPDEST PUSH2 0x1889 DUP2 PUSH2 0x1875 JUMP JUMPDEST DUP3 MSTORE POP POP JUMP JUMPDEST PUSH0 PUSH1 0x20 DUP3 ADD SWAP1 POP PUSH2 0x18A2 PUSH0 DUP4 ADD DUP5 PUSH2 0x1880 JUMP JUMPDEST SWAP3 SWAP2 POP POP JUMP JUMPDEST PUSH2 0x18B1 DUP2 PUSH2 0x1804 JUMP JUMPDEST DUP3 MSTORE POP POP JUMP JUMPDEST PUSH0 PUSH1 0x20 DUP3 ADD SWAP1 POP PUSH2 0x18CA PUSH0 DUP4 ADD DUP5 PUSH2 0x18A8 JUMP JUMPDEST SWAP3 SWAP2 POP POP JUMP JUMPDEST PUSH0 DUP1 PUSH0 PUSH1 0x60 DUP5 DUP7 SUB SLT ISZERO PUSH2 0x18E7 JUMPI PUSH2 0x18E6 PUSH2 0x17A6 JUMP JUMPDEST JUMPDEST PUSH0 PUSH2 0x18F4 DUP7 DUP3 DUP8 ADD PUSH2 0x17F0 JUMP JUMPDEST SWAP4 POP POP PUSH1 0x20 PUSH2 0x1905 DUP7 DUP3 DUP8 ADD PUSH2 0x17F0 JUMP JUMPDEST SWAP3 POP POP PUSH1 0x40 PUSH2 0x1916 DUP7 DUP3 DUP8 ADD PUSH2 0x1823 JUMP JUMPDEST SWAP2 POP POP SWAP3 POP SWAP3 POP SWAP3 JUMP JUMPDEST PUSH0 DUP2 SWAP1 POP SWAP2 SWAP1 POP JUMP JUMPDEST PUSH2 0x1932 DUP2 PUSH2 0x1920 JUMP JUMPDEST DUP3 MSTORE POP POP JUMP JUMPDEST PUSH0 PUSH1 0x20 DUP3 ADD SWAP1 POP PUSH2 0x194B PUSH0 DUP4 ADD DUP5 PUSH2 0x1929 JUMP JUMPDEST SWAP3 SWAP2 POP POP JUMP JUMPDEST PUSH0 PUSH1 0xFF DUP3 AND SWAP1 POP SWAP2 SWAP1 POP JUMP JUMPDEST PUSH2 0x1966 DUP2 PUSH2 0x1951 JUMP JUMPDEST DUP3 MSTORE POP POP JUMP JUMPDEST PUSH0 PUSH1 0x20 DUP3 ADD SWAP1 POP PUSH2 0x197F PUSH0 DUP4 ADD DUP5 PUSH2 0x195D JUMP JUMPDEST SWAP3 SWAP2 POP POP JUMP JUMPDEST PUSH0 PUSH1 0x20 DUP3 DUP5 SUB SLT ISZERO PUSH2 0x199A JUMPI PUSH2 0x1999 PUSH2 0x17A6 JUMP JUMPDEST JUMPDEST PUSH0 PUSH2 0x19A7 DUP5 DUP3 DUP6 ADD PUSH2 0x17F0 JUMP JUMPDEST SWAP2 POP POP SWAP3 SWAP2 POP POP JUMP JUMPDEST PUSH0 DUP2 MLOAD SWAP1 POP SWAP2 SWAP1 POP JUMP JUMPDEST PUSH0 DUP3 DUP3 MSTORE PUSH1 0x20 DUP3 ADD SWAP1 POP SWAP3 SWAP2 POP POP JUMP JUMPDEST PUSH0 PUSH2 0x19D4 DUP3 PUSH2 0x19B0 JUMP JUMPDEST PUSH2 0x19DE DUP2 DUP6 PUSH2 0x19BA JUMP JUMPDEST SWAP4 POP PUSH2 0x19EE DUP2 DUP6 PUSH1 0x20 DUP7 ADD PUSH2 0x1716 JUMP JUMPDEST PUSH2 0x19F7 DUP2 PUSH2 0x173E JUMP JUMPDEST DUP5 ADD SWAP2 POP POP SWAP3 SWAP2 POP POP JUMP JUMPDEST PUSH0 PUSH1 0x20 DUP3 ADD SWAP1 POP DUP2 DUP2 SUB PUSH0 DUP4 ADD MSTORE PUSH2 0x1A1A DUP2 DUP5 PUSH2 0x19CA JUMP JUMPDEST SWAP1 POP SWAP3 SWAP2 POP POP JUMP JUMPDEST PUSH2 0x1A2B DUP2 PUSH2 0x17C9 JUMP JUMPDEST DUP3 MSTORE POP POP JUMP JUMPDEST PUSH0 PUSH1 0x20 DUP3 ADD SWAP1 POP PUSH2 0x1A44 PUSH0 DUP4 ADD DUP5 PUSH2 0x1A22 JUMP JUMPDEST SWAP3 SWAP2 POP POP JUMP JUMPDEST PUSH0 PUSH1 0x20 DUP3 DUP5 SUB SLT ISZERO PUSH2 0x1A5F JUMPI PUSH2 0x1A5E PUSH2 0x17A6 JUMP JUMPDEST JUMPDEST PUSH0 PUSH2 0x1A6C DUP5 DUP3 DUP6 ADD PUSH2 0x1823 JUMP JUMPDEST SWAP2 POP POP SWAP3 SWAP2 POP POP JUMP JUMPDEST PUSH2 0x1A7E DUP2 PUSH2 0x1951 JUMP JUMPDEST DUP2 EQ PUSH2 0x1A88 JUMPI PUSH0 DUP1 REVERT JUMPDEST POP JUMP JUMPDEST PUSH0 DUP2 CALLDATALOAD SWAP1 POP PUSH2 0x1A99 DUP2 PUSH2 0x1A75 JUMP JUMPDEST SWAP3 SWAP2 POP POP JUMP JUMPDEST PUSH2 0x1AA8 DUP2 PUSH2 0x1920 JUMP JUMPDEST DUP2 EQ PUSH2 0x1AB2 JUMPI PUSH0 DUP1 REVERT JUMPDEST POP JUMP JUMPDEST PUSH0 DUP2 CALLDATALOAD SWAP1 POP PUSH2 0x1AC3 DUP2 PUSH2 0x1A9F JUMP JUMPDEST SWAP3 SWAP2 POP POP JUMP JUMPDEST PUSH0 DUP1 PUSH0 DUP1 PUSH0 DUP1 PUSH0 PUSH1 0xE0 DUP9 DUP11 SUB SLT ISZERO PUSH2 0x1AE4 JUMPI PUSH2 0x1AE3 PUSH2 0x17A6 JUMP JUMPDEST JUMPDEST PUSH0 PUSH2 0x1AF1 DUP11 DUP3 DUP12 ADD PUSH2 0x17F0 JUMP JUMPDEST SWAP8 POP POP PUSH1 0x20 PUSH2 0x1B02 DUP11 DUP3 DUP12 ADD PUSH2 0x17F0 JUMP JUMPDEST SWAP7 POP POP PUSH1 0x40 PUSH2 0x1B13 DUP11 DUP3 DUP12 ADD PUSH2 0x1823 JUMP JUMPDEST SWAP6 POP POP PUSH1 0x60 PUSH2 0x1B24 DUP11 DUP3 DUP12 ADD PUSH2 0x1823 JUMP JUMPDEST SWAP5 POP POP PUSH1 0x80 PUSH2 0x1B35 DUP11 DUP3 DUP12 ADD PUSH2 0x1A8B JUMP JUMPDEST SWAP4 POP POP PUSH1 0xA0 PUSH2 0x1B46 DUP11 DUP3 DUP12 ADD PUSH2 0x1AB5 JUMP JUMPDEST SWAP3 POP POP PUSH1 0xC0 PUSH2 0x1B57 DUP11 DUP3 DUP12 ADD PUSH2 0x1AB5 JUMP JUMPDEST SWAP2 POP POP SWAP3 SWAP6 SWAP9 SWAP2 SWAP5 SWAP8 POP SWAP3 SWAP6 POP JUMP JUMPDEST PUSH0 DUP1 PUSH1 0x40 DUP4 DUP6 SUB SLT ISZERO PUSH2 0x1B7C JUMPI PUSH2 0x1B7B PUSH2 0x17A6 JUMP JUMPDEST JUMPDEST PUSH0 PUSH2 0x1B89 DUP6 DUP3 DUP7 ADD PUSH2 0x17F0 JUMP JUMPDEST SWAP3 POP POP PUSH1 0x20 PUSH2 0x1B9A DUP6 DUP3 DUP7 ADD PUSH2 0x17F0 JUMP JUMPDEST SWAP2 POP POP SWAP3 POP SWAP3 SWAP1 POP JUMP JUMPDEST PUSH32 0x4E487B7100000000000000000000000000000000000000000000000000000000 PUSH0 MSTORE PUSH1 0x22 PUSH1 0x4 MSTORE PUSH1 0x24 PUSH0 REVERT JUMPDEST PUSH0 PUSH1 0x2 DUP3 DIV SWAP1 POP PUSH1 0x1 DUP3 AND DUP1 PUSH2 0x1BE8 JUMPI PUSH1 0x7F DUP3 AND SWAP2 POP JUMPDEST PUSH1 0x20 DUP3 LT DUP2 SUB PUSH2 0x1BFB JUMPI PUSH2 0x1BFA PUSH2 0x1BA4 JUMP JUMPDEST JUMPDEST POP SWAP2 SWAP1 POP JUMP JUMPDEST PUSH32 0x4F776E61626C653A2063616C6C6572206973206E6F7420746865206F776E6572 PUSH0 DUP3 ADD MSTORE POP JUMP JUMPDEST PUSH0 PUSH2 0x1C35 PUSH1 0x20 DUP4 PUSH2 0x1706 JUMP JUMPDEST SWAP2 POP PUSH2 0x1C40 DUP3 PUSH2 0x1C01 JUMP JUMPDEST PUSH1 0x20 DUP3 ADD SWAP1 POP SWAP2 SWAP1 POP JUMP JUMPDEST PUSH0 PUSH1 0x20 DUP3 ADD SWAP1 POP DUP2 DUP2 SUB PUSH0 DUP4 ADD MSTORE PUSH2 0x1C62 DUP2 PUSH2 0x1C29 JUMP JUMPDEST SWAP1 POP SWAP2 SWAP1 POP JUMP JUMPDEST PUSH32 0x494E56414C49445F4F574E455200000000000000000000000000000000000000 PUSH0 DUP3 ADD MSTORE POP JUMP JUMPDEST PUSH0 PUSH2 0x1C9D PUSH1 0xD DUP4 PUSH2 0x1706 JUMP JUMPDEST SWAP2 POP PUSH2 0x1CA8 DUP3 PUSH2 0x1C69 JUMP JUMPDEST PUSH1 0x20 DUP3 ADD SWAP1 POP SWAP2 SWAP1 POP JUMP JUMPDEST PUSH0 PUSH1 0x20 DUP3 ADD SWAP1 POP DUP2 DUP2 SUB PUSH0 DUP4 ADD MSTORE PUSH2 0x1CCA DUP2 PUSH2 0x1C91 JUMP JUMPDEST SWAP1 POP SWAP2 SWAP1 POP JUMP JUMPDEST PUSH32 0x494E56414C49445F45585049524154494F4E0000000000000000000000000000 PUSH0 DUP3 ADD MSTORE POP JUMP JUMPDEST PUSH0 PUSH2 0x1D05 PUSH1 0x12 DUP4 PUSH2 0x1706 JUMP JUMPDEST SWAP2 POP PUSH2 0x1D10 DUP3 PUSH2 0x1CD1 JUMP JUMPDEST PUSH1 0x20 DUP3 ADD SWAP1 POP SWAP2 SWAP1 POP JUMP JUMPDEST PUSH0 PUSH1 0x20 DUP3 ADD SWAP1 POP DUP2 DUP2 SUB PUSH0 DUP4 ADD MSTORE PUSH2 0x1D32 DUP2 PUSH2 0x1CF9 JUMP JUMPDEST SWAP1 POP SWAP2 SWAP1 POP JUMP JUMPDEST PUSH0 PUSH1 0xC0 DUP3 ADD SWAP1 POP PUSH2 0x1D4C PUSH0 DUP4 ADD DUP10 PUSH2 0x1929 JUMP JUMPDEST PUSH2 0x1D59 PUSH1 0x20 DUP4 ADD DUP9 PUSH2 0x1A22 JUMP JUMPDEST PUSH2 0x1D66 PUSH1 0x40 DUP4 ADD DUP8 PUSH2 0x1A22 JUMP JUMPDEST PUSH2 0x1D73 PUSH1 0x60 DUP4 ADD DUP7 PUSH2 0x18A8 JUMP JUMPDEST PUSH2 0x1D80 PUSH1 0x80 DUP4 ADD DUP6 PUSH2 0x18A8 JUMP JUMPDEST PUSH2 0x1D8D PUSH1 0xA0 DUP4 ADD DUP5 PUSH2 0x18A8 JUMP JUMPDEST SWAP8 SWAP7 POP POP POP POP POP POP POP JUMP JUMPDEST PUSH0 DUP2 SWAP1 POP SWAP3 SWAP2 POP POP JUMP JUMPDEST PUSH32 0x1901000000000000000000000000000000000000000000000000000000000000 PUSH0 DUP3 ADD MSTORE POP JUMP JUMPDEST PUSH0 PUSH2 0x1DD6 PUSH1 0x2 DUP4 PUSH2 0x1D98 JUMP JUMPDEST SWAP2 POP PUSH2 0x1DE1 DUP3 PUSH2 0x1DA2 JUMP JUMPDEST PUSH1 0x2 DUP3 ADD SWAP1 POP SWAP2 SWAP1 POP JUMP JUMPDEST PUSH0 DUP2 SWAP1 POP SWAP2 SWAP1 POP JUMP JUMPDEST PUSH2 0x1E06 PUSH2 0x1E01 DUP3 PUSH2 0x1920 JUMP JUMPDEST PUSH2 0x1DEC JUMP JUMPDEST DUP3 MSTORE POP POP JUMP JUMPDEST PUSH0 PUSH2 0x1E16 DUP3 PUSH2 0x1DCA JUMP JUMPDEST SWAP2 POP PUSH2 0x1E22 DUP3 DUP6 PUSH2 0x1DF5 JUMP JUMPDEST PUSH1 0x20 DUP3 ADD SWAP2 POP PUSH2 0x1E32 DUP3 DUP5 PUSH2 0x1DF5 JUMP JUMPDEST PUSH1 0x20 DUP3 ADD SWAP2 POP DUP2 SWAP1 POP SWAP4 SWAP3 POP POP POP JUMP JUMPDEST PUSH0 PUSH1 0x80 DUP3 ADD SWAP1 POP PUSH2 0x1E55 PUSH0 DUP4 ADD DUP8 PUSH2 0x1929 JUMP JUMPDEST PUSH2 0x1E62 PUSH1 0x20 DUP4 ADD DUP7 PUSH2 0x195D JUMP JUMPDEST PUSH2 0x1E6F PUSH1 0x40 DUP4 ADD DUP6 PUSH2 0x1929 JUMP JUMPDEST PUSH2 0x1E7C PUSH1 0x60 DUP4 ADD DUP5 PUSH2 0x1929 JUMP JUMPDEST SWAP6 SWAP5 POP POP POP POP POP JUMP JUMPDEST PUSH32 0x494E56414C49445F5349474E4154555245000000000000000000000000000000 PUSH0 DUP3 ADD MSTORE POP JUMP JUMPDEST PUSH0 PUSH2 0x1EB9 PUSH1 0x11 DUP4 PUSH2 0x1706 JUMP JUMPDEST SWAP2 POP PUSH2 0x1EC4 DUP3 PUSH2 0x1E85 JUMP JUMPDEST PUSH1 0x20 DUP3 ADD SWAP1 POP SWAP2 SWAP1 POP JUMP JUMPDEST PUSH0 PUSH1 0x20 DUP3 ADD SWAP1 POP DUP2 DUP2 SUB PUSH0 DUP4 ADD MSTORE PUSH2 0x1EE6 DUP2 PUSH2 0x1EAD JUMP JUMPDEST SWAP1 POP SWAP2 SWAP1 POP JUMP JUMPDEST PUSH32 0x4E487B7100000000000000000000000000000000000000000000000000000000 PUSH0 MSTORE PUSH1 0x11 PUSH1 0x4 MSTORE PUSH1 0x24 PUSH0 REVERT JUMPDEST PUSH0 PUSH2 0x1F24 DUP3 PUSH2 0x1804 JUMP JUMPDEST SWAP2 POP PUSH2 0x1F2F DUP4 PUSH2 0x1804 JUMP JUMPDEST SWAP3 POP DUP3 DUP3 ADD SWAP1 POP DUP1 DUP3 GT ISZERO PUSH2 0x1F47 JUMPI PUSH2 0x1F46 PUSH2 0x1EED JUMP JUMPDEST JUMPDEST SWAP3 SWAP2 POP POP JUMP JUMPDEST PUSH32 0x4F776E61626C653A206E6577206F776E657220697320746865207A65726F2061 PUSH0 DUP3 ADD MSTORE PUSH32 0x6464726573730000000000000000000000000000000000000000000000000000 PUSH1 0x20 DUP3 ADD MSTORE POP JUMP JUMPDEST PUSH0 PUSH2 0x1FA7 PUSH1 0x26 DUP4 PUSH2 0x1706 JUMP JUMPDEST SWAP2 POP PUSH2 0x1FB2 DUP3 PUSH2 0x1F4D JUMP JUMPDEST PUSH1 0x40 DUP3 ADD SWAP1 POP SWAP2 SWAP1 POP JUMP JUMPDEST PUSH0 PUSH1 0x20 DUP3 ADD SWAP1 POP DUP2 DUP2 SUB PUSH0 DUP4 ADD MSTORE PUSH2 0x1FD4 DUP2 PUSH2 0x1F9B JUMP JUMPDEST SWAP1 POP SWAP2 SWAP1 POP JUMP JUMPDEST PUSH32 0x45524332303A20617070726F76652066726F6D20746865207A65726F20616464 PUSH0 DUP3 ADD MSTORE PUSH32 0x7265737300000000000000000000000000000000000000000000000000000000 PUSH1 0x20 DUP3 ADD MSTORE POP JUMP JUMPDEST PUSH0 PUSH2 0x2035 PUSH1 0x24 DUP4 PUSH2 0x1706 JUMP JUMPDEST SWAP2 POP PUSH2 0x2040 DUP3 PUSH2 0x1FDB JUMP JUMPDEST PUSH1 0x40 DUP3 ADD SWAP1 POP SWAP2 SWAP1 POP JUMP JUMPDEST PUSH0 PUSH1 0x20 DUP3 ADD SWAP1 POP DUP2 DUP2 SUB PUSH0 DUP4 ADD MSTORE PUSH2 0x2062 DUP2 PUSH2 0x2029 JUMP JUMPDEST SWAP1 POP SWAP2 SWAP1 POP JUMP JUMPDEST PUSH32 0x45524332303A20617070726F766520746F20746865207A65726F206164647265 PUSH0 DUP3 ADD MSTORE PUSH32 0x7373000000000000000000000000000000000000000000000000000000000000 PUSH1 0x20 DUP3 ADD MSTORE POP JUMP JUMPDEST PUSH0 PUSH2 0x20C3 PUSH1 0x22 DUP4 PUSH2 0x1706 JUMP JUMPDEST SWAP2 POP PUSH2 0x20CE DUP3 PUSH2 0x2069 JUMP JUMPDEST PUSH1 0x40 DUP3 ADD SWAP1 POP SWAP2 SWAP1 POP JUMP JUMPDEST PUSH0 PUSH1 0x20 DUP3 ADD SWAP1 POP DUP2 DUP2 SUB PUSH0 DUP4 ADD MSTORE PUSH2 0x20F0 DUP2 PUSH2 0x20B7 JUMP JUMPDEST SWAP1 POP SWAP2 SWAP1 POP JUMP JUMPDEST PUSH32 0x45524332303A207472616E736665722066726F6D20746865207A65726F206164 PUSH0 DUP3 ADD MSTORE PUSH32 0x6472657373000000000000000000000000000000000000000000000000000000 PUSH1 0x20 DUP3 ADD MSTORE POP JUMP JUMPDEST PUSH0 PUSH2 0x2151 PUSH1 0x25 DUP4 PUSH2 0x1706 JUMP JUMPDEST SWAP2 POP PUSH2 0x215C DUP3 PUSH2 0x20F7 JUMP JUMPDEST PUSH1 0x40 DUP3 ADD SWAP1 POP SWAP2 SWAP1 POP JUMP JUMPDEST PUSH0 PUSH1 0x20 DUP3 ADD SWAP1 POP DUP2 DUP2 SUB PUSH0 DUP4 ADD MSTORE PUSH2 0x217E DUP2 PUSH2 0x2145 JUMP JUMPDEST SWAP1 POP SWAP2 SWAP1 POP JUMP JUMPDEST PUSH32 0x45524332303A207472616E7366657220746F20746865207A65726F2061646472 PUSH0 DUP3 ADD MSTORE PUSH32 0x6573730000000000000000000000000000000000000000000000000000000000 PUSH1 0x20 DUP3 ADD MSTORE POP JUMP JUMPDEST PUSH0 PUSH2 0x21DF PUSH1 0x23 DUP4 PUSH2 0x1706 JUMP JUMPDEST SWAP2 POP PUSH2 0x21EA DUP3 PUSH2 0x2185 JUMP JUMPDEST PUSH1 0x40 DUP3 ADD SWAP1 POP SWAP2 SWAP1 POP JUMP JUMPDEST PUSH0 PUSH1 0x20 DUP3 ADD SWAP1 POP DUP2 DUP2 SUB PUSH0 DUP4 ADD MSTORE PUSH2 0x220C DUP2 PUSH2 0x21D3 JUMP JUMPDEST SWAP1 POP SWAP2 SWAP1 POP JUMP JUMPDEST PUSH32 0x45524332303A206D696E7420746F20746865207A65726F206164647265737300 PUSH0 DUP3 ADD MSTORE POP JUMP JUMPDEST PUSH0 PUSH2 0x2247 PUSH1 0x1F DUP4 PUSH2 0x1706 JUMP JUMPDEST SWAP2 POP PUSH2 0x2252 DUP3 PUSH2 0x2213 JUMP JUMPDEST PUSH1 0x20 DUP3 ADD SWAP1 POP SWAP2 SWAP1 POP JUMP JUMPDEST PUSH0 PUSH1 0x20 DUP3 ADD SWAP1 POP DUP2 DUP2 SUB PUSH0 DUP4 ADD MSTORE PUSH2 0x2274 DUP2 PUSH2 0x223B JUMP JUMPDEST SWAP1 POP SWAP2 SWAP1 POP JUMP INVALID GASLIMIT MSTORE NUMBER ORIGIN ADDRESS GASPRICE KECCAK256 PUSH21 0x72616E7366657220616D6F756E7420657863656564 PUSH20 0x2062616C616E636545524332303A207472616E73 PUSH7 0x657220616D6F75 PUSH15 0x74206578636565647320616C6C6F77 PUSH2 0x6E63 PUSH6 0x45524332303A KECCAK256 PUSH5 0x6563726561 PUSH20 0x656420616C6C6F77616E63652062656C6F77207A PUSH6 0x726FA2646970 PUSH7 0x7358221220E4B9 LOG2 PUSH22 0xCF018D2733DE054D967E2958FA23F3DBDF8269461B4 COINBASE 0xD3 0xB1 TSTORE CALL 0xC6 PUSH5 0x736F6C6343 STOP ADDMOD XOR STOP CALLER "
        },
        "gasEstimates": {
            "creation": {
                "codeDepositCost": "1799200",
                "executionCost": "infinite",
                "totalCost": "infinite"
            },
            "external": {
                "DOMAIN_SEPARATOR()": "2470",
                "EIP712_REVISION()": "infinite",
                "PERMIT_TYPEHASH()": "437",
                "allowance(address,address)": "infinite",
                "approve(address,uint256)": "infinite",
                "balanceOf(address)": "2940",
                "decimals()": "2496",
                "decreaseAllowance(address,uint256)": "infinite",
                "increaseAllowance(address,uint256)": "infinite",
                "mint(address,uint256)": "infinite",
                "mint(uint256)": "infinite",
                "name()": "infinite",
                "nonces(address)": "2896",
                "owner()": "2655",
                "permit(address,address,uint256,uint256,uint8,bytes32,bytes32)": "infinite",
                "renounceOwnership()": "30466",
                "symbol()": "infinite",
                "totalSupply()": "2500",
                "transfer(address,uint256)": "infinite",
                "transferFrom(address,address,uint256)": "infinite",
                "transferOwnership(address)": "30917"
            }
        },
        "methodIdentifiers": {
            "DOMAIN_SEPARATOR()": "3644e515",
            "EIP712_REVISION()": "78160376",
            "PERMIT_TYPEHASH()": "30adf81f",
            "allowance(address,address)": "dd62ed3e",
            "approve(address,uint256)": "095ea7b3",
            "balanceOf(address)": "70a08231",
            "decimals()": "313ce567",
            "decreaseAllowance(address,uint256)": "a457c2d7",
            "increaseAllowance(address,uint256)": "39509351",
            "mint(address,uint256)": "40c10f19",
            "mint(uint256)": "a0712d68",
            "name()": "06fdde03",
            "nonces(address)": "7ecebe00",
            "owner()": "8da5cb5b",
            "permit(address,address,uint256,uint256,uint8,bytes32,bytes32)": "d505accf",
            "renounceOwnership()": "715018a6",
            "symbol()": "95d89b41",
            "totalSupply()": "18160ddd",
            "transfer(address,uint256)": "a9059cbb",
            "transferFrom(address,address,uint256)": "23b872dd",
            "transferOwnership(address)": "f2fde38b"
        }
    },
    "abi": [
        {
            "inputs": [
                {
                    "internalType": "string",
                    "name": "name",
                    "type": "string"
                },
                {
                    "internalType": "string",
                    "name": "symbol",
                    "type": "string"
                },
                {
                    "internalType": "uint8",
                    "name": "decimals",
                    "type": "uint8"
                },
                {
                    "internalType": "address",
                    "name": "owner",
                    "type": "address"
                }
            ],
            "stateMutability": "nonpayable",
            "type": "constructor"
        },
        {
            "anonymous": false,
            "inputs": [
                {
                    "indexed": true,
                    "internalType": "address",
                    "name": "owner",
                    "type": "address"
                },
                {
                    "indexed": true,
                    "internalType": "address",
                    "name": "spender",
                    "type": "address"
                },
                {
                    "indexed": false,
                    "internalType": "uint256",
                    "name": "value",
                    "type": "uint256"
                }
            ],
            "name": "Approval",
            "type": "event"
        },
        {
            "anonymous": false,
            "inputs": [
                {
                    "indexed": true,
                    "internalType": "address",
                    "name": "previousOwner",
                    "type": "address"
                },
                {
                    "indexed": true,
                    "internalType": "address",
                    "name": "newOwner",
                    "type": "address"
                }
            ],
            "name": "OwnershipTransferred",
            "type": "event"
        },
        {
            "anonymous": false,
            "inputs": [
                {
                    "indexed": true,
                    "internalType": "address",
                    "name": "from",
                    "type": "address"
                },
                {
                    "indexed": true,
                    "internalType": "address",
                    "name": "to",
                    "type": "address"
                },
                {
                    "indexed": false,
                    "internalType": "uint256",
                    "name": "value",
                    "type": "uint256"
                }
            ],
            "name": "Transfer",
            "type": "event"
        },
        {
            "inputs": [],
            "name": "DOMAIN_SEPARATOR",
            "outputs": [
                {
                    "internalType": "bytes32",
                    "name": "",
                    "type": "bytes32"
                }
            ],
            "stateMutability": "view",
            "type": "function"
        },
        {
            "inputs": [],
            "name": "EIP712_REVISION",
            "outputs": [
                {
                    "internalType": "bytes",
                    "name": "",
                    "type": "bytes"
                }
            ],
            "stateMutability": "view",
            "type": "function"
        },
        {
            "inputs": [],
            "name": "PERMIT_TYPEHASH",
            "outputs": [
                {
                    "internalType": "bytes32",
                    "name": "",
                    "type": "bytes32"
                }
            ],
            "stateMutability": "view",
            "type": "function"
        },
        {
            "inputs": [
                {
                    "internalType": "address",
                    "name": "owner",
                    "type": "address"
                },
                {
                    "internalType": "address",
                    "name": "spender",
                    "type": "address"
                }
            ],
            "name": "allowance",
            "outputs": [
                {
                    "internalType": "uint256",
                    "name": "",
                    "type": "uint256"
                }
            ],
            "stateMutability": "view",
            "type": "function"
        },
        {
            "inputs": [
                {
                    "internalType": "address",
                    "name": "spender",
                    "type": "address"
                },
                {
                    "internalType": "uint256",
                    "name": "amount",
                    "type": "uint256"
                }
            ],
            "name": "approve",
            "outputs": [
                {
                    "internalType": "bool",
                    "name": "",
                    "type": "bool"
                }
            ],
            "stateMutability": "nonpayable",
            "type": "function"
        },
        {
            "inputs": [
                {
                    "internalType": "address",
                    "name": "account",
                    "type": "address"
                }
            ],
            "name": "balanceOf",
            "outputs": [
                {
                    "internalType": "uint256",
                    "name": "",
                    "type": "uint256"
                }
            ],
            "stateMutability": "view",
            "type": "function"
        },
        {
            "inputs": [],
            "name": "decimals",
            "outputs": [
                {
                    "internalType": "uint8",
                    "name": "",
                    "type": "uint8"
                }
            ],
            "stateMutability": "view",
            "type": "function"
        },
        {
            "inputs": [
                {
                    "internalType": "address",
                    "name": "spender",
                    "type": "address"
                },
                {
                    "internalType": "uint256",
                    "name": "subtractedValue",
                    "type": "uint256"
                }
            ],
            "name": "decreaseAllowance",
            "outputs": [
                {
                    "internalType": "bool",
                    "name": "",
                    "type": "bool"
                }
            ],
            "stateMutability": "nonpayable",
            "type": "function"
        },
        {
            "inputs": [
                {
                    "internalType": "address",
                    "name": "spender",
                    "type": "address"
                },
                {
                    "internalType": "uint256",
                    "name": "addedValue",
                    "type": "uint256"
                }
            ],
            "name": "increaseAllowance",
            "outputs": [
                {
                    "internalType": "bool",
                    "name": "",
                    "type": "bool"
                }
            ],
            "stateMutability": "nonpayable",
            "type": "function"
        },
        {
            "inputs": [
                {
                    "internalType": "address",
                    "name": "account",
                    "type": "address"
                },
                {
                    "internalType": "uint256",
                    "name": "value",
                    "type": "uint256"
                }
            ],
            "name": "mint",
            "outputs": [
                {
                    "internalType": "bool",
                    "name": "",
                    "type": "bool"
                }
            ],
            "stateMutability": "nonpayable",
            "type": "function"
        },
        {
            "inputs": [
                {
                    "internalType": "uint256",
                    "name": "value",
                    "type": "uint256"
                }
            ],
            "name": "mint",
            "outputs": [
                {
                    "internalType": "bool",
                    "name": "",
                    "type": "bool"
                }
            ],
            "stateMutability": "nonpayable",
            "type": "function"
        },
        {
            "inputs": [],
            "name": "name",
            "outputs": [
                {
                    "internalType": "string",
                    "name": "",
                    "type": "string"
                }
            ],
            "stateMutability": "view",
            "type": "function"
        },
        {
            "inputs": [
                {
                    "internalType": "address",
                    "name": "owner",
                    "type": "address"
                }
            ],
            "name": "nonces",
            "outputs": [
                {
                    "internalType": "uint256",
                    "name": "",
                    "type": "uint256"
                }
            ],
            "stateMutability": "view",
            "type": "function"
        },
        {
            "inputs": [],
            "name": "owner",
            "outputs": [
                {
                    "internalType": "address",
                    "name": "",
                    "type": "address"
                }
            ],
            "stateMutability": "view",
            "type": "function"
        },
        {
            "inputs": [
                {
                    "internalType": "address",
                    "name": "owner",
                    "type": "address"
                },
                {
                    "internalType": "address",
                    "name": "spender",
                    "type": "address"
                },
                {
                    "internalType": "uint256",
                    "name": "value",
                    "type": "uint256"
                },
                {
                    "internalType": "uint256",
                    "name": "deadline",
                    "type": "uint256"
                },
                {
                    "internalType": "uint8",
                    "name": "v",
                    "type": "uint8"
                },
                {
                    "internalType": "bytes32",
                    "name": "r",
                    "type": "bytes32"
                },
                {
                    "internalType": "bytes32",
                    "name": "s",
                    "type": "bytes32"
                }
            ],
            "name": "permit",
            "outputs": [],
            "stateMutability": "nonpayable",
            "type": "function"
        },
        {
            "inputs": [],
            "name": "renounceOwnership",
            "outputs": [],
            "stateMutability": "nonpayable",
            "type": "function"
        },
        {
            "inputs": [],
            "name": "symbol",
            "outputs": [
                {
                    "internalType": "string",
                    "name": "",
                    "type": "string"
                }
            ],
            "stateMutability": "view",
            "type": "function"
        },
        {
            "inputs": [],
            "name": "totalSupply",
            "outputs": [
                {
                    "internalType": "uint256",
                    "name": "",
                    "type": "uint256"
                }
            ],
            "stateMutability": "view",
            "type": "function"
        },
        {
            "inputs": [
                {
                    "internalType": "address",
                    "name": "recipient",
                    "type": "address"
                },
                {
                    "internalType": "uint256",
                    "name": "amount",
                    "type": "uint256"
                }
            ],
            "name": "transfer",
            "outputs": [
                {
                    "internalType": "bool",
                    "name": "",
                    "type": "bool"
                }
            ],
            "stateMutability": "nonpayable",
            "type": "function"
        },
        {
            "inputs": [
                {
                    "internalType": "address",
                    "name": "sender",
                    "type": "address"
                },
                {
                    "internalType": "address",
                    "name": "recipient",
                    "type": "address"
                },
                {
                    "internalType": "uint256",
                    "name": "amount",
                    "type": "uint256"
                }
            ],
            "name": "transferFrom",
            "outputs": [
                {
                    "internalType": "bool",
                    "name": "",
                    "type": "bool"
                }
            ],
            "stateMutability": "nonpayable",
            "type": "function"
        },
        {
            "inputs": [
                {
                    "internalType": "address",
                    "name": "newOwner",
                    "type": "address"
                }
            ],
            "name": "transferOwnership",
            "outputs": [],
            "stateMutability": "nonpayable",
            "type": "function"
        }
    ]
}